:020000040800F2
:10800000A0070020618200083D9F0008F59C000841
:10801000399F00080D84000861A1000800000000DD
:10802000000000000000000000000000459F000864
:108030005185000800000000419F0008499F00088A
:108040007B8200087B8200087B8200087B8200081C
:108050007B8200087B8200087B8200087B8200080C
:108060007B8200087B8200087B8200087B820008FC
:108070007B8200087B8200087B8200087B820008EC
:108080007B8200087B8200087B82000800000000E1
:108090000000000000000000000000007B820008DB
:1080A0007B8200087B8200087B8200087B820008BC
:1080B0007B8200087B82000819A000087B820008F0
:1080C0007B8200087B8200087B8200087B8200089C
:1080D0007B8200087B8200087B8200080000000091
:1080E0007B8200087B8200087B8200080000000081
:1080F0000000000000000000000000007B8200087B
:10810000000000007B8200087B8200087B82000860
:10811000000000000000000000000000000000005F
:108120007B8200087B8200087B8200087B8200083B
:108130007B8200080000000000000000000000003A
:108140000000000000000000000000007B8200082A
:108150007B8200087B8200087B8200087B8200080B
:108160007B8200087B820008000000000000000005
:1081700000000000000000000000000000000000FF
:10818000000000007B8200080000000000000000EA
:108190007B82000800F002F800F052F814A696E87E
:1081A000000CB244B344DA4501D100F049F8BAE812
:1081B0000F000FA696E83000A5EB040504EB0607B8
:1081C000AAEB0704A7F101074FEA15154FEA34148B
:1081D000A4F10104AC4201D300F032F813F0010F16
:1081E00018BFFB1A43F0010300F001F8DBE7184762
:1081F0001424000034240000103A24BF78C878C149
:10820000FAD8520724BF30C830C144BF04680C609C
:10821000704700007047000000230024002500265E
:10822000103A28BF78C1FBD8520728BF30C148BFD9
:108230000B6070471FB502F0C7F91FBD10B510BD28
:1082400000F0A9F81146FFF7F5FF01F08BFF00F0F1
:10825000C7F803B4FFF7F2FF03BC00F0CFF800004B
:108260000948804709480047FEE7FEE7FEE7FEE7CA
:10827000FEE7FEE7FEE7FEE7FEE7FEE70448054906
:10828000054A064B70470000F99F000895810008D9
:10829000A0010020A0070020A0030020A0030020D0
:1082A00053EA020C00F069802DE9F04B4FF0000614
:1082B000002B1FBFB3FA83F503FA05F424FA05F681
:1082C0005E4012BF1643B2FA82F502FA05F4C5F118
:1082D00020051EBF22FA05FC44EA0C04203556EAAC
:1082E000044C4FEA144418BF641C4FF000084FF0D0
:1082F0000009904271EB030C39D3002919BFB1FA80
:1083000081F701FA07F6B0FA80F700FA07F6C7F12D
:1083100020071EBF20FA07FC46EA0C062037B6FBF2
:10832000F4FCA7EB0507103F07F01F0BCBF120066D
:108330002CFA06F60CFA0BFB44BFB3460026202F9E
:10834000A4BF5E464FF0000B5BEA060C08BF4FF07F
:10835000010B19EB0B0948EB0608ABFB027C06FB93
:1083600002CC0BFB03CCC01B71EB0C01C1E70B462D
:10837000024641464846BDE8F08B13B5084318BF96
:108380004FF0FF300146AFF30080BDE81C4070475E
:10839000704770477047754600F02CF8AE460500F0
:1083A0006946534620F00700854618B020B5FFF710
:1083B00065FFBDE820404FF000064FF000074FF08A
:1083C00000084FF0000BAC46ACE8C009ACE8C009AF
:1083D000ACE8C009ACE8C00921F007018D46704740
:1083E00010B50446AFF300802046BDE81040FFF70B
:1083F00030BF0000004870471000002001491820DD
:10840000ABBEFEE72600020070470000FEE700005A
:1084100010B540F20044C4F2020420464FF48051EB
:10842000002200F081F920464FF40051012200F0B3
:108430007BF920464FF48041002200F075F9204678
:108440004FF400410122BDE8104000F06DB900007A
:1084500010B540F20044C4F2020420464FF48051AB
:10846000012200F061F920464FF40051002200F093
:108470005BF920464FF48041012200F055F9204677
:108480004FF400410022BDE8104000F04DB900005B
:1084900010B540F20044C4F2020420464FF480516B
:1084A000012200F041F920464FF40051002200F073
:1084B0003BF920464FF48041002200F035F9204678
:1084C0004FF400410122BDE8104000F02DB900003A
:1084D00010B540F20044C4F2020420464FF480512B
:1084E000002200F021F920464FF40051012200F053
:1084F0001BF920464FF48041012200F015F9204677
:108500004FF400410022BDE8104000F00DB900001A
:1085100010B540F20044C4F2020420464FF48051EA
:10852000002200F001F920464FF40051002200F033
:10853000FBF820464FF48041002200F0F5F8204679
:108540004FF400410022BDE8104000F0EDB80000FB
:1085500070470000EFF3108072B600BFFEE7000026
:10856000B0B5044600F0E6F8054640F20000C2F25D
:1085700000000078611C18BF044400BF00F0DAF866
:10858000401BA042FAD3B0BD2DE9F04F82B000F1FC
:108590003E4202F1FF72870541F2000647EA922748
:1085A000C4F20206072243F6004EB04208BF04227E
:1085B000C4F2010E042F38BF3A46002700264FF0C0
:1085C0000008009209E000BF08F101080236B8F186
:1085D000100F07F1040700F0A3800A68012303FAD3
:1085E00008F412EA0409EFD0D1F804C003230CF018
:1085F000030BABF1010203FA06F5012A6FEA050A43
:1086000010D88268CD6802EA0A02B5402A43826027
:108610004268A243CCF3001404FA08F422434260F7
:1086200006E000BFBBF1030F02D14FF0030B1EE0C9
:10863000C2688C6802EA0A02B4402243BBF1020F0E
:10864000C26014D16FF0030202EA58020244D2F869
:1086500020C007F01C040F230D69A3402CEA03037C
:10866000A5402B431362D1F804C00CF0030B026841
:108670000BFA06F302EA0A021A435FEACC0302602D
:10868000A2D5002243F644030192C4F202031A6801
:108690004FF6084C42F480421A601A68CFF6FF7C0D
:1086A00002F480420192019A28F00302724452F8C7
:1086B0000C3007F00C050F24AC40A343009C04FAD7
:1086C00005F52B4342F80C30DEF800204B6842EAF7
:1086D0000905DC0358BF22EA0905CEF80050DEF890
:1086E00004209C0342EA090558BF22EA0905CEF896
:1086F0000450DEF80820DC0242EA090543F60C4487
:1087000058BF22EA0905CEF80850C4F201042268D5
:108710009B0242EA090558BF22EA0905256053E792
:1087200002B0BDE8F08F0000002A08BF0904816193
:108730007047000040F29810C2F2000000687047D5
:1087400040F2000040F29811C2F20000C2F20001B3
:1087500000780A68104408607047000080B543F64E
:108760000040C4F20200016841F400710160016838
:1087700041F480610160016841F48071016003206F
:1087800000F086F80F2000F005F800F027F8002030
:1087900080BD000070B540F20006C2F2000640F253
:1087A00008013278C2F200014FF47A730968B3FB12
:1087B000F2F20446B1FBF2F1084600F061FB0F2C27
:1087C0004FF0010508D838B94FF0FF30214600229C
:1087D000002500F031F87460284670BD82B000209A
:1087E00043F640010190C4F202014A6842F480421B
:1087F0004A604A6802F480420192019A0090086837
:1088000040F080500860086800F0805000900098A8
:1088100002B07047002848BF704700F01F010122D6
:1088200002FA01F11C2202EAD0004EF20012CEF24E
:10883000000281507047000010B54EF60C5CCEF27D
:10884000000CDCF80030C3F3022E8EF00704042C79
:1088500028BF0424BEF103034FF0FF3E0EFA04F4D8
:1088600038BF0023A14399400EFA03F39A43114302
:1088700000F00F0200F160430901043A03F564437C
:108880006244002848BF02F10C03197010BD0000BB
:108890004EF60C51CEF200010A684FF6FF031A4063
:1088A00060F30A2242F0806040F0FD70086070477B
:1088B000002804BF012070472DE9F04143F6080865
:1088C000C4F202080446D8F8F8030D4600F0070089
:1088D000884207D288F8F853D8F8F80300F0070068
:1088E000A84277D12068810717D5410705D5D8F868
:1088F000001041F4E051C8F80010010705D5D8F880
:10890000001041F46041C8F80010D8F80010A268C7
:1089100021F0F0011143C8F80010C00740D1D8F889
:10892000F80300F00700A84207D988F8F853D8F8F0
:10893000F80300F00700A8424CD12068410707D592
:10894000D8F80010E26821F4E0511143C8F8001093
:10895000000708D5D8F80000216920F4604040EAFB
:10896000C100C8F8000000F07DF8D8F800104AF205
:10897000E252C1F30311C0F60002515C40F208025A
:1089800020FA01F140F20400C2F200000068C2F2D5
:1089900000021160FFF7FEFE0020BDE8F08100BF7D
:1089A0006068811E022907D258F8081C89015CBF43
:1089B0000120BDE8F08111E0012807D158F8081C1A
:1089C00089035CBF0120BDE8F08107E058F8081C6E
:1089D000890703D40120BDE8F08100BFD8F800105A
:1089E00021F003010843C8F80000FFF7A3FE064684
:1089F00041F28837D8F80000616800F00C00B0EB55
:108A0000810F8CD0FFF796FE801BB842F2D903206D
:108A1000BDE8F08140F2080043F60801C2F2000010
:108A2000C4F20201006809684AF2F252C1F38221DD
:108A3000C0F60002515CC8407047000040F20800D8
:108A400043F60801C2F20000C4F20201006809689E
:108A50004AF2F252C1F34231C0F60002515CC84002
:108A60007047000010B543F60404C4F202046068C5
:108A700000F00C0008280BD0042819BF42F2004077
:108A8000C0F2F40047F64000C0F27D1010BD00BFF8
:108A9000206821682368490247F64001C0F27D1131
:108AA00000F03F02C3F388105CBF42F20041C0F205
:108AB000F401A1FB00010023FFF7F2FB2168022271
:108AC000C1F3014102EB4101B0FBF1F010BD000028
:108AD000002804BF012070472DE9F04182B0044610
:108AE000007843F60006C007C4F202060CD0B06856
:108AF00000F00C00042840F081803068800303D52A
:108B00006068002800F06A81207880071BD5B06873
:108B100010F00C0F09D0B06800F00C00082840F0ED
:108B200087807068400200F183803068800703D539
:108B3000E068012840F052813068216920F0F80097
:108B400040EAC10030602078000713D42078400745
:108B50002AD4A569002D00F03C81B06800F00C001B
:108B6000082840F0A180012D40F01081012002B0C2
:108B7000BDE8F0816069002840F20000C4F247209F
:108B800000F07E800121C0F8801EFFF7D3FD05466E
:108B9000706F8007DAD4FFF7CDFD401B0228F7D9AC
:108BA000032002B0BDE8F081306C5FEAC0080AD44F
:108BB00000200190306C40F080503064306C00F048
:108BC00080500190019847F20007C4F2000738680E
:108BD000C00547D4386840F480703860FFF7AAFDBC
:108BE000054600BF3868C0053CD4FFF7A3FD401B15
:108BF0000228F7D9032002B0BDE8F081B06800F088
:108C00000C00082803D1706840023FF576AF606819
:108C1000B0F5803F07D0B0F5A02F40F09B803068C2
:108C200040F480203060306840F4803030609BE059
:108C3000E06800285CD00020C4F2472001210160D8
:108C4000FFF778FD054600BF306880073FF574AF39
:108C5000FFF770FD401B0228F6D9032002B0BDE8E3
:108C6000F08100BFA068012805D0052854D1306FDD
:108C700040F004003067306F40F00100306755E08D
:108C80000021C0F8801EFFF755FD0546706F800774
:108C90007FF55CAFFFF74EFD401B0228F6D903209D
:108CA00002B0BDE8F08100BF0027C4F247270020D2
:108CB0003866FFF73FFD022D05460DD13068800173
:108CC00040F19080FFF736FD401B02284FF0030073
:108CD000F4D902B0BDE8F0813068800179D5FFF7A2
:108CE00029FD401B02284FF00300F5D9F1E700BF32
:108CF0000020C4F2472000210160FFF71BFD05465C
:108D0000306880077FF51FAFFFF714FD401B022876
:108D10004FF00300F4D9DCE7316F002821F00101A6
:108D20003167316F21F0040131677DD0FFF702FD1B
:108D3000054641F2883700BF306F800700F186801A
:108D4000FFF7F8FC401BB842F6D9032002B0BDE89B
:108D5000F08100BF3168002821F480313160316832
:108D600021F4802131607BD0FFF7E4FC054600BF91
:108D7000306880033FF5C8AEFFF7DCFC401B642879
:108D8000F6D9032002B0BDE8F08100BF7068E16948
:108D900000F480028A4221D1216A00F03F028A4217
:108DA0001CD147F6C071626A0140B1EB821F15D138
:108DB000A16A4FF6FF73C903994300F44032A1F54D
:108DC00080318A420AD1E16A00F07060B0EB016F35
:108DD00004D1002002B0BDE8F08100BF012002B044
:108DE000BDE8F08104F11C052FCD084340EA821054
:108DF000D9034FF6FF729143A1F5803140EA056037
:108E00000843706001203866FFF794FC044600BFF9
:108E100030688001DDD4FFF78DFC001B02284FF085
:108E20000300F5D955E700BFFFF784FC054641F282
:108E3000883700BF306F800708D5FFF77BFC401BE9
:108E4000B8424FF00300F5D943E700BFB8F1000F77
:108E50003FF57FAE306C20F08050306479E600BF83
:108E6000FFF768FC054600BF306880037FF54CAE15
:108E7000FFF760FC401B64284FF00300F4D928E79B
:108E8000411E0020B0EB116F1CBF012070474EF255
:108E90001002CEF2000251604EF62351CEF20001D4
:108EA000F0230B700721906011607047704700003D
:108EB0007047000090F83C20012A4FF0020241D098
:108EC00010B580F83D200268D2F804E0D2F808C05E
:108ED0000C682EF07003234340F6FF34C4F2000404
:108EE000A242536010DCB2F1804F1ED040F200432A
:108EF000C4F200039A4218D040F60003C4F2000303
:108F00009A4212D016E000BF40F60043C4F20003BC
:108F10009A420AD044F20003C4F201039A4204D0F8
:108F20000023C4F201039A4204D149682CF0800363
:108F3000194391600121002280F83D1080F83C2007
:108F4000BDE810401046704770B540F27005C2F29F
:108F500000056978044699B16878012818BF70BD8A
:108F600020460021002600F081FDA860246866628A
:108F7000A8686968884217D9A8686968401A1DE01E
:108F800020460021002600F071FD68600120687015
:108F90002068016A21F00A010162016A41F00201C0
:108FA00001622E7070BD00BF6868A968884206D94A
:108FB0006868A968081A4FF6FF710844E860E86815
:108FC00001F0F1F99FED0E0B53EC102B01F0FEF9BF
:108FD00001F0BAF9688000206870206A012620F04C
:108FE0000A002062206A206240F2C800C2F200003B
:108FF0000068C16821F00201C1602E7070BD00BF21
:109000009CC420B07268913F90F83C30012B04BFA3
:1090100002207047F0B5082A28D0042A46D0002A3A
:1090200062D10368D1E900C5D1F80CE01A6A40F6B4
:10903000FF3722F001021A621A4652F8186F1C6AB2
:10904000C4F20007BB4275DCB3F1804F00F08380AF
:1090500040F20047C4F20007BB4200F07C8040F6BB
:109060000007C4F20007BB4275D08FE00768D1E962
:1090700000C5D1E902313A6A61F3071522F4807222
:109080003A623A4652F81C4F3E6A24F0F30445EA2D
:10909000040126F420660CF00A0546EA0526116054
:1090A0003E62116821F00C01116065E00368D1E9AE
:1090B00000E6D1E902C11A6A360222F010021A62F1
:1090C0001A4652F8184F4FF2FF071D6ABE4324F4A8
:1090D000734461F30F3646EA040125F0A0040EF054
:1090E0000A0744EA07171CE00368D1E900E6D1E962
:1090F00002C11A6A360222F480521A621A4652F8E3
:109100001C4F4FF2FF071D6ABE4324F4734461F302
:109110000F3646EA040125F420440EF00A0744EA1B
:10912000073711601F6211684FEA0C2321F4406178
:10913000116021E040F60047C4F20007BB420AD0AC
:1091400044F20007C4F20107BB4204D00027C4F276
:109150000107BB421AD126F00306354324F00A0763
:109160000CF00A066EF3071537449D611F629F6974
:1091700027F00C079F618B6811681943116000216B
:1091800080F83C10BDE8F0400846704746F0010505
:10919000E4E70000002804BF0120704710B5044632
:1091A00090F83D0028B9002084F83C00204600F0EB
:1091B0008FF8022084F83D00206840F2FF730268B7
:1091C000C4F2000340F2000C9842C4F2010C1DDD11
:1091D00040F60001C4F20001884220D060451ED054
:1091E00040F60041C4F20001884218D04FF6FF71EA
:1091F000C4F2000188421CDC984225DCB0F1804FAB
:109200003AD040F20041C4F2000133E0B0F1804FA7
:1092100005D040F20041C4F200018842E6D1A168C5
:1092200022F070020A434FF6FF71C4F20001884237
:10923000E2DD44F2FF31C4F20101884210DC6045F6
:109240001AD044F2000113E040F60001C4F200011C
:10925000884211D040F60041C4F200010AE000BF8C
:1092600044F60001C4F20101884205D044F20041F5
:10927000C4F20101884203D1216922F440720A43F9
:10928000A36922F08001D4F804E0E2681943604544
:109290000160C262C0F828E002D16169CCF83010E8
:1092A00001214161002084F8461084F83E1084F8C2
:1092B0003F1084F8401084F8411084F8421084F87C
:1092C000431084F8441084F8451084F83D1010BD14
:1092D000016840F60000C4F20000814218BF7047E8
:1092E00080B586B0002143F630020191C4F202023B
:1092F000136900F5FE3043F004031361136903F0B2
:1093000004030193019B0191136843F0020313606E
:10931000126802F002020192019A40220192022296
:10932000CDE90221CDE9041201A9FFF72DF91E2094
:1093300000210022FFF780FA1E20FFF76BFA06B02B
:10934000BDE880407047000061B1082916D00429AB
:1093500019BF00F1410200F1450300F13F0200F1A5
:1093600043030FE090F83E2090F84230012A4FF07E
:10937000010208BF012B1BD01046704700F14002CC
:1093800000F1440312781B78012A4FF0010208BF54
:10939000012BF1D10222082914D0042924D180F80C
:1093A0003F2080F843204FEAB102032A12D923E07C
:1093B000022280F83E2080F842204FEAB102032AC0
:1093C00008D919E080F8402080F844204FEAB10223
:1093D000032A11D8DFE802F00212181E0068C268E2
:1093E00042F002021AE000BF80F8412080F84520D8
:1093F0004FEAB102032AEDD9006810E00068C268A4
:1094000042F004020AE000BF0068C26842F00802AD
:1094100004E000BF0068C26842F01002C26001F0C0
:109420001F010122036A02FA01F123EA010202622A
:10943000026A114340F6FF32C4F200029042016218
:1094400010DCB0F1804F1ED040F20041C4F20001A8
:10945000884218D040F60001C4F20001884212D0C0
:1094600016E000BF40F60041C4F2000188420AD075
:1094700044F20001C4F20101884204D00021C4F288
:109480000101884204D1816801F00701062903D057
:10949000016841F0010101600022104670470000A0
:1094A00010B5016804460869800744BFC8685FEAD0
:1094B000807039D40869400744BFC8685FEA4070CB
:1094C0003ED40869000744BFC8685FEA007045D40D
:1094D0000869C00644BFC8685FEAC0604AD408692A
:1094E000C0071CBFC8685FEAC07051D10869000698
:1094F00044BFC8685FEA006052D40869400644BFB0
:10950000C8685FEA406053D40869800646BFC868EF
:109510005FEA806010BD6FF0200220460A61BDE85E
:109520001040FFF7C5BC00BF6FF0020008610120CA
:1095300020778869800743D02046FFF705FD45E086
:109540006FF00400086102202077886910F4407FE2
:1095500040D02046FFF7F8FC42E000BF6FF0080063
:10956000086104202077C86980073DD02046FFF7B6
:10957000EBFC3FE06FF01000086108202077C8691D
:1095800010F4407F3AD02046FFF7DEFC3CE000BFFD
:109590006FF001000861204600F066FA2168A5E737
:1095A0006FF0800008612046FFF780FC2168A4E787
:1095B0006FF040000861204600F072FA2168A3E7CE
:1095C000204600F025F8204600F0D4F9216800205C
:1095D00020776FE7204600F01BF8204600F0CAF91C
:1095E0002168002020776CE7204600F011F8204623
:1095F00000F0C0F921680020207769E7204600F0DC
:1096000007F8204600F0B6F921680020207766E7C9
:109610007047000090F83C30012B04BF02207047D7
:109620004FEAB202032A00F2E7802DE9F043DFE8B7
:1096300002F0033975AF00BF036800261A6AC4F24E
:10964000010622F001021A621D6A1A465C6852F88D
:1096500018CFB3428E68D1F800E025F0020545EA44
:1096600006050CD1CE68D1E9057824F4407425F0C4
:109670000C0526F004063C43354344EA08042CF06C
:10968000730747EA0E075C609F614F6809695F6373
:109690001D629F6947F008079F619F6927F00407D3
:1096A0009F61A4E0036800261A6AC4F2010622F052
:1096B00010021A621D6A1A46D3F804C052F8184FF5
:1096C000B3428E68D1F800E025F0200545EA061582
:1096D0000FD1CE68D1E905986FF0400725F0C0059D
:1096E00007EA061635432CF4406748EA090647EABC
:1096F000860C24F4E64444EA0E27C3F804C09F61B4
:109700004F6809699F631D629F6947F400679F6105
:109710009F6927F480679F6168E000BF03680026A7
:109720001A6AC4F2010622F480721A621D6A1A468D
:10973000D3F804C052F81CEFB3428E680C6825F4CD
:10974000007545EA06250FD1CE68D1E905983602A5
:1097500040F2FF4725F44065BE4335432CF44057A3
:1097600048EA090647EA061C2EF073072743C3F8A8
:1097700004C0DF614F680969DF631D62DF6947F07C
:109780000807DF61DF6927F00407DF612FE000BF12
:10979000036800271A6AC4F2010722F480521A6291
:1097A0001A46D3F820C05D6852F81C4FD1F800E08B
:1097B0008E68BB4204D14F6925F4804545EA871580
:1097C0002CF4005747EA063724F4E64646EA0E260C
:1097D0005D60DE614E6809691E641F62DF6947F4DF
:1097E0000067DF61DF6927F48067DF6109021368C2
:1097F00019431160BDE8F043002180F83C10084691
:1098000070470000002804BF0120704710B50446CF
:1098100090F83D0028B9002084F83C00204600F074
:109820008FF8022084F83D00206840F2FF73026840
:10983000C4F2000340F2000C9842C4F2010C1DDD9A
:1098400040F60001C4F20001884220D060451ED0DD
:1098500040F60041C4F20001884218D04FF6FF7173
:10986000C4F2000188421CDC984225DCB0F1804F34
:109870003AD040F20041C4F2000133E0B0F1804F31
:1098800005D040F20041C4F200018842E6D1A1684F
:1098900022F070020A434FF6FF71C4F200018842C1
:1098A000E2DD44F2FF31C4F20101884210DC604580
:1098B0001AD044F2000113E040F60001C4F20001A6
:1098C000884211D040F60041C4F200010AE000BF16
:1098D00044F60001C4F20101884205D044F200417F
:1098E000C4F20101884203D1216922F440720A4383
:1098F000A36922F08001D4F804E0E26819436045CE
:109900000160C262C0F828E002D16169CCF8301071
:1099100001214161002084F8461084F83E1084F84B
:109920003F1084F8401084F8411084F8421084F805
:10993000431084F8441084F8451084F83D1010BD9D
:10994000006840F20041C4F20001884218BF70472D
:1099500081B00020009043F64000C4F2020001688C
:1099600041F002010160006800F0020000900098E0
:1099700001B070477047000041B1082910D0042998
:1099800014BF00F1410200F13F020BE090F83E20CD
:10999000012A1CBF01207047022280F83E2013E0FC
:1099A00000F140021278012A1CBF012070470222F8
:1099B000082907D0042914BF80F8412080F83F20EF
:1099C00002E000BF80F84020006801F01F01012282
:1099D000036A8A4023EA02010162036A4421C4F255
:1099E00001011A43A1F144039842026216D040F6E5
:1099F000FF31C4F2000188421ADCB0F1804F28D058
:109A000040F20041C4F20001884222D040F6000139
:109A1000C4F2000188421CD020E000BF0A6842F472
:109A200000420A6040F6FF31C4F200018842E4DDE2
:109A300040F60041C4F2000188420AD044F200011D
:109A4000C4F20101884204D00021C4F2010188421D
:109A500004D1816801F00701062903D0016841F0B3
:109A60000101016000207047704700004FEAB1011A
:109A7000032984BF00207047DFE801F0020E060AC8
:109A8000006834300068704700683C3000687047F8
:109A900000684030006870470068383000687047E0
:109AA00070470000002804BF0120704710B504462D
:109AB00090F83D0028B9002084F83C00204600F0D2
:109AC00021F8242084F83D002068C16821F4005169
:109AD000C160204600F0A6FA2068016921F4904197
:109AE0000161416921F02A014161C16841F40051DD
:109AF000C16000202021206484F83D1084F83E10CD
:109B000010BD000080B586B0006841F20042C4F28A
:109B1000010200219042CDE90411CDE90211019129
:109B200022D044F20041C4F20001884245D1002015
:109B300043F630010090C4F202010A6942F4003297
:109B40000A610A6902F400320092009A00900868E3
:109B500040F00100086008680C2100F0010000904E
:109B6000009807201BE000BF43F630000091C4F2CC
:109B70000200426942F020024261426902F0200282
:109B80000092009A0091016841F0010101600068B3
:109B90004FF4C05100F0010000900098082001919E
:109BA00002210291002103910321CDE9041000203C
:109BB000C4F2020001A9FEF7E7FC06B080BD000078
:109BC0002DE9F04381B0044690F83E0020280DD1E5
:109BD0000E4600294FF0010000F088801746002A49
:109BE00000F0848094F83C00012803D1022001B0E9
:109BF000BDE8F083012084F83C00002022211D46AE
:109C0000206484F83E102063FEF794FDA785E78565
:109C1000A1680746B1F5805F01D1206910B1B04657
:109C2000002601E04FF00008002084F83C00E08DA1
:109C3000002857D005F101090DE000BF40684FF042
:109C400000086FF35F2026F8020BE08D0138E085F5
:109C5000E08D002846D02068016889060ED4B9F14D
:109C6000000F19D055B300BFFEF764FDC11B20687B
:109C7000A94223D801688906F6D500BFB8F1000FC4
:109C8000DCD0A168B1F5805F14D009B9216989B130
:109C9000406800F07F000EE001688906EED401689C
:109CA00089065CBF01685FEA8161E7D401688906C3
:109CB000F2D5E3E7406808F8010BC6E7C16821F474
:109CC000D071C160416921F001014161202084F817
:109CD0003D0084F83E00002084F83C00032001B0E1
:109CE000BDE8F083202084F83E00002001B0BDE8EC
:109CF000F0830000FEE700002DE9F04387B0002765
:109D000043F6300006970197C4F20200016840F262
:109D1000000941F0010101600168C4F2020901F08B
:109D20000101019101990197016809F5806541F0F0
:109D30000201016000684FF2800100F00200019012
:109D40000198284600224FF28006FEF7EDFC4846B7
:109D50004FF4806100224FF48068FEF7E5FC029624
:109D600002AE012428463146CDE903470597FEF7A8
:109D70000BFC48463146CDE90284CDE90477FEF775
:109D800003FC07B0BDE8F083B0B590B040F20045E9
:109D900040F28000C4F200050021C2F200004FF63C
:109DA000FF72CDE90811CDE90611CDE90411C0E932
:109DB0000051C0E9021201618161FFF723FD002813
:109DC00018BFFEF7C7FB40F28000C2F2000008A9EE
:109DD000FFF770F8002818BFFEF7BCFB602040F2C8
:109DE000800401900020C2F20004CDE90200059039
:109DF00001A920460022FFF70DFC002818BFFEF73E
:109E0000A9FB2068A84201D010B0B0BD002043F6E5
:109E100030010B90C4F202010A6842F001020A60AC
:109E2000096801F001010B910B9940210B9102216E
:109E3000CDE90C10CDE90E0105F5FE300BA9FEF7BA
:109E4000A3FB10B0B0BD000080B586B040F2C800E2
:109E500040F600020021C2F20000C4F200025323C7
:109E60004FF6FF7CCDE90411C0E90023C0E9021CD4
:109E700001618161FFF78EF9002818BFFEF76AFBC8
:109E800040F2C800C2F2000004A9FFF713F800284E
:109E900018BFFEF75FFB002001210090CDE9011003
:109EA000039040F2C800C2F2000069460022FFF7AA
:109EB000ABF8002818BFFEF74DFB06B080BD0000D0
:109EC00080B540F2101044F20041C2F20000C4F22A
:109ED000000100234FF00C0C4FF4E13280E80E003B
:109EE000C0E90333C0E905C3C361FFF7DBFD002808
:109EF00008BF80BDBDE88040FEF72CBB80B540F2B6
:109F0000541041F20041C2F20000C4F201010023EA
:109F10004FF00C0C4FF4165280E80E00C0E90333EA
:109F2000C0E905C3C361FFF7BDFD002808BF80BDC0
:109F3000BDE88040FEF70EBBFEE70000FEE7000034
:109F40007047000070470000FEF7FABBB0B592B052
:109F5000002443F640000B94CDE90944CDE90744C1
:109F60000594CDE90344CDE901440094C4F2020014
:109F70000168022541F080510160006800F08050C6
:109F80000090009847F200000094C4F200000168BD
:109F900065F38F310160006800F440400090009844
:109FA0000120099010200A9008200E905420CDE93D
:109FB0000F050420119006A80695CDE90C54FEF774
:109FC00087FD28B1EFF3108072B600BFFEE700BF37
:109FD0000F20CDE901054FF48050CDE9040401A81C
:109FE00002210394FEF764FC20B1EFF3108072B6F7
:109FF000FEE700BF12B0B0BD4EF68850CEF20000B2
:10A00000016841F47001016048F20001C0F60001EE
:10A0100040F8801C7047000040F2C800C2F2000007
:10A02000FFF73EBA10B504460068D4E902C22369BE
:10A03000016921F4405111430161626943EA0C0155
:10A04000E3691143C268194349F20C639A4311430F
:10A05000C1604169A26921F4407141F2004311439A
:10A0600040F48062C4F201039A42416102D1FEF7DA
:10A07000E5FC01E0FEF7CEFCE16963681922B1F569
:10A08000004FA0FB020123D15A00DB0FFEF708F9B5
:10A0900048F21F51C5F2EB11A0FB01235A094FF6FC
:10A0A0009C73C0F6FF7303F1805302FB030032235D
:10A0B00003EBC000A0FB01014FF4F87000EA11109F
:10A0C00000EB0210C1F3421108442168886010BD02
:10A0D0009A009B0FFEF7E4F848F21F51C5F2EB110E
:10A0E000A0FB01235A094FF69C73C0F6FF7302FBD5
:10A0F0000300322303EB0010A0FB0101F02000EA73
:10A10000511000EB0210C1F343110844216888602C
:10A1100010BD0000B0B504460068A1880122FEF71A
:10A1200003FB40F2C805C2F2000528680021416225
:10A13000416A042908D8416A042905D8416A0429DA
:10A1400002D8416A0529F3D32068A1880022FEF7CE
:10A15000EBFA2868C16841F00201C160B0BD00009F
:10A16000FEE7000082B040F200080024C4F20208BA
:10A170008DF80740FEF7F2FAFFF7E8FEFFF7BCFDA7
:10A18000FFF702FEFFF760FEFFF79AFEFFF7B6FE4D
:10A1900040F28005C2F2000528460021FFF7ECFBE3
:10A1A0002868B6EE001A90ED0B0A0021B8EE400ABE
:10A1B00020EE010ABCEEC00A80ED0D0A40F2C80094
:10A1C000C2F20000FFF7C0F840F2700540F25419E7
:10A1D0004AF2FC57C2F20005C2F200090DF107066F
:10A1E000C0F60007287810B13846FFF793FF4846BD
:10A1F000314601221423FFF7E3FC9DF807000028F5
:10A2000004BF8DF807402046044642381128E9D89B
:10A21000DFE800F0100E0E0E140E0E0E0E0E460E9F
:10A220000E0E0E0E5E0A00BFFEF772F9DAE700BFEF
:10A23000D8E700BFFEF7ECF8D4E700BF6888142821
:10A2400064D8FEF765F940464FF480610122FEF7BD
:10A250006BFA4FF4FA70FEF783F940464FF48061D1
:10A260000022FEF761FAFEF733F94FF4FA70FEF7B9
:10A2700077F96888142806D9FEF74AF9B2E700BFD3
:10A2800068881528F8D2FEF723F94FF4FA70FEF724
:10A2900067F928780028F3D03846FFF73BFFEFE74F
:10A2A000688814283CD8FEF733F940464FF48061A3
:10A2B0000122FEF739FA4FF4FA70FEF751F94046E1
:10A2C0004FF480610022FEF72FFAFEF701F916E045
:10A2D000688814282ED8FEF71BF940464FF4806199
:10A2E0000122FEF721FA4FF4FA70FEF739F94046E1
:10A2F0004FF480610022FEF717FAFEF7C9F84FF419
:10A300007A70FEF72DF9FEF703F96BE740464FF43C
:10A3100080610022FEF708FAFEF79AF862E700BFB4
:10A3200040464FF480610022FEF7FEF9FEF7B0F8D8
:10A3300058E700BF40464FF480610022FEF7F4F971
:10A34000FEF7C6F84EE700004FEA41034FEA5353C9
:10A35000A3F58063D3F11E03C8BFD3F1210C0CDD3C
:10A360004FF0004242EAC12242EA505232FA03FC64
:10A370008CEAE17CACEBE1707047102BC4BF00208D
:10A38000704703F5787CBCF1FF3F04D06FF00042CA
:10A3900082EA2100704770B500F0C2F8499224802B
:10A3A00000207047F2E7B0FA80F310FA03F10AD008
:10A3B000C3F11D0303F580634FEA03524FEA415096
:10A3C00002EBD12170474FF00000704770B5DFF805
:10A3D00048C11CEA111E1EBF1CEA13159EEA0C0F91
:10A3E00095EA0C0F00F06F8081EA03044EEAD47EF8
:10A3F000AE4421EA4C1123EA4C1341F4801143F49A
:10A400008013AEF17F7EA1FB024CA0FB03653619E1
:10A4100055EB0C05A1FB034C4CF10003A0FB021C07
:10A4200016EB0C06654153F10003094218BF46F0D4
:10A43000010613F4007F0BD14FEA03314FEA0530D8
:10A4400041EA155140EA165034036FF003020AE066
:10A450004FEAC3214FEAC52041EA555140EA565020
:10A46000F4026FF0020202EB2E4201EB025585EA84
:10A47000CE710AD05FEA440C18BF24F0004450F1BA
:10A48000000041F1000120EAD47040F2FE7C6245F8
:10A4900000D270BDA84214BF4FF080444FF040443A
:10A4A000002E08BF0024BEF1806FA8BFA1F1C041FB
:10A4B000BDE8704080F2828001F1C04101F00041AE
:10A4C0004FF0000070470CEA13159EEA0C0F18BFFE
:10A4D00095EA0C0F06D081EA030E4FF000000EF053
:10A4E000004170BD00F01CF88900013E00F007B883
:10A4F00000F009B84FEA430C5FEA5C5C08D081EADF
:10A50000030100F05BB84FEA410C5FEA5C5CF6D1F6
:10A5100002494FF0000070470000FF070000F87F7D
:10A520000EF1020E2EF0030E5EF8046B364205D4D7
:10A53000012A43EB030515F5001F12D8012841EB52
:10A54000010C1CF5001F0CD80ED14FEAD17C0CEB8E
:10A550004C0C0CF1020C15F5001F08BF4CEBD37C22
:10A5600004E04FF0080C01E04FEAD37C0CEB4C0503
:10A5700026FA05F606F00706B6F1040C06D20EEB35
:10A58000860CBDE870404CF0010C6047DFE80CF031
:10A59000090B02024FF00041A1F500214FF000002D
:10A5A00070BD19461046012851EB010418BFD4F5BF
:10A5B000001484BF002001F0004170BD0808A0F520
:10A5C00000114FEA31017047F1EE100A4FF6FF71AA
:10A5D000C0F2C03120EA010040F04070E1EE100A04
:10A5E000704700000000000000000102030406079D
:10A5F00008090000000001020304000000040240FA
:10A600008000400028A60008000000201000000084
:10A61000F881000838A6000810000020900700000C
:10A620001882000800000000010000001000000077
:08A630000024F400000000000A
:0400000508008195D9
:00000001FF
