:020000040800F2
:10800000A007002061820008159F0008B99C0008A5
:10801000119F00085984000831A1000800000000E9
:108020000000000000000000000000001D9F00088C
:108030009D85000800000000199F0008219F00088E
:108040007B8200087B8200087B8200087B8200081C
:108050007B8200087B8200087B8200087B8200080C
:108060007B8200087B8200087B8200087B820008FC
:108070007B8200087B8200087B8200087B820008EC
:108080007B8200087B8200087B82000800000000E1
:108090000000000000000000000000007B820008DB
:1080A0007B8200087B8200087B8200087B820008BC
:1080B0007B8200087B820008F19F00087B82000819
:1080C0007B8200087B8200087B8200087B8200089C
:1080D0007B8200087B8200087B8200080000000091
:1080E0007B8200087B8200087B8200080000000081
:1080F0000000000000000000000000007B8200087B
:10810000000000007B8200087B8200087B82000860
:10811000000000000000000000000000000000005F
:108120007B8200087B8200087B8200087B8200083B
:108130007B8200080000000000000000000000003A
:108140000000000000000000000000007B8200082A
:108150007B8200087B8200087B8200087B8200080B
:108160007B8200087B820008000000000000000005
:1081700000000000000000000000000000000000FF
:10818000000000007B8200080000000000000000EA
:108190007B82000800F002F800F052F814A696E87E
:1081A000000CB244B344DA4501D100F049F8BAE812
:1081B0000F000FA696E83000A5EB040504EB0607B8
:1081C000AAEB0704A7F101074FEA15154FEA34148B
:1081D000A4F10104AC4201D300F032F813F0010F16
:1081E00018BFFB1A43F0010300F001F8DBE7184762
:1081F0004423000064230000103A24BF78C878C1EB
:10820000FAD8520724BF30C830C144BF04680C609C
:10821000704700007047000000230024002500265E
:10822000103A28BF78C1FBD8520728BF30C148BFD9
:108230000B6070471FB502F047F91FBD10B510BDA8
:1082400000F0D0F81146FFF7F5FF01F073FF00F0E2
:10825000EEF803B4FFF7F2FF03BC00F0F5F80000FE
:108260000948804709480047FEE7FEE7FEE7FEE7CA
:10827000FEE7FEE7FEE7FEE7FEE7FEE70448054906
:10828000054A064B70470000D19F00089581000801
:10829000A0010020A0070020A0030020A0030020D0
:1082A00053EA020C00F069802DE9F04B4FF0000614
:1082B000002B1FBFB3FA83F503FA05F424FA05F681
:1082C0005E4012BF1643B2FA82F502FA05F4C5F118
:1082D00020051EBF22FA05FC44EA0C04203556EAAC
:1082E000044C4FEA144418BF641C4FF000084FF0D0
:1082F0000009904271EB030C39D3002919BFB1FA80
:1083000081F701FA07F6B0FA80F700FA07F6C7F12D
:1083100020071EBF20FA07FC46EA0C062037B6FBF2
:10832000F4FCA7EB0507103F07F01F0BCBF120066D
:108330002CFA06F60CFA0BFB44BFB3460026202F9E
:10834000A4BF5E464FF0000B5BEA060C08BF4FF07F
:10835000010B19EB0B0948EB0608ABFB027C06FB93
:1083600002CC0BFB03CCC01B71EB0C01C1E70B462D
:10837000024641464846BDE8F08B13B5084318BF96
:108380004FF0FF300146AFF30080BDE81C4070475E
:108390004FF0000200B5134694469646203922BF9E
:1083A000A0E80C50A0E80C50B1F12001BFF4F7AFE9
:1083B000090728BFA0E80C5048BF0CC05DF804EBCB
:1083C000890028BF40F8042B08BF704748BF20F839
:1083D000022B11F0804F18BF00F8012B7047704737
:1083E00070477047754600F02BF8AE4605006946A9
:1083F000534620F00700854618B020B5FFF73EFF32
:10840000BDE820404FF000064FF000074FF0000895
:108410004FF0000BAC46ACE8C009ACE8C009ACE8D2
:10842000C009ACE8C00921F007018D46704710B5BE
:108430000446AFF300802046BDE81040FFF709BFB7
:10844000004870471000002001491820ABBEFEE72D
:108450002600020070470000FEE7000010B540F261
:108460000044C4F2020420464FF48051002200F080
:108470006DF920464FF40051012200F067F92046C3
:108480004FF48041002200F061F920464FF4004192
:108490000122BDE8104000F059B9000010B540F2CB
:1084A0000044C4F2020420464FF48051012200F03F
:1084B0004DF920464FF40051002200F047F92046C4
:1084C0004FF48041012200F041F920464FF4004171
:1084D0000022BDE8104000F039B9000010B540F2AC
:1084E0000044C4F2020420464FF48051012200F0FF
:1084F0002DF920464FF40051002200F027F92046C4
:108500004FF48041002200F021F920464FF4004151
:108510000122BDE8104000F019B9000010B540F28A
:108520000044C4F2020420464FF48051002200F0BF
:108530000DF920464FF40051012200F007F92046C2
:108540004FF48041012200F001F920464FF4004130
:108550000022BDE8104000F0F9B8000010B540F26C
:108560000044C4F2020420464FF48051002200F07F
:10857000EDF820464FF40051002200F0E7F82046C5
:108580004FF48041002200F0E1F820464FF4004112
:108590000022BDE8104000F0D9B80000704700008C
:1085A000EFF3108072B600BFFEE700002DE9F04F38
:1085B00083B000F1200200F13E4741F20005009235
:1085C00007F1FF77C4F2020507224FEAB726A84257
:1085D00008BF0422042E38BF4FEAB72200274FF00D
:1085E00000084FF0000901920AE000BF09F10109FB
:1085F00008F10208B9F1100F07F1040700F0A2809A
:108600000D68012202FA09FE15EA0E0AEED0D1F831
:1086100004B003220BF003056C1E02FA08F2012CD1
:108620006FEA020C12D88268CC6802EA0C0204FAE3
:1086300008F4224382604268CBF3001422EA0E025F
:1086400004FA09F42243426004E000BF032D01D183
:1086500003251FE0C2688C6802EA0C0204FA08F4E1
:108660002243022DC26015D16FF00302009D02EA81
:10867000590207F01C040F2355F802E003FA04F630
:108680000B692EEA0606A3403343AB50D1F804B081
:108690000BF00305026805FA08F302EA0C021A431C
:1086A0005FEACB030260A1D5002243F644030292A5
:1086B000C4F202031A6843F6004442F480421A608E
:1086C0001A68C4F2010402F480420292029A29F06C
:1086D00003024FF6084C2244CFF6FF7C52F80C30D0
:1086E00007F00C060F25B540AB43019D05FA06F6D1
:1086F000334342F80C3022684B6842EA0A06DD0335
:1087000058BF22EA0A06266062689D0342EA0A060A
:1087100058BF22EA0A066660A268DD0242EA0A063B
:1087200043F60C4558BF22EA0A06A660C4F20105CA
:108730002A689B0242EA0A0658BF22EA0A062E600D
:1087400054E700BF03B0BDE8F08F0000002A08BF67
:10875000090481617047000040F29810C2F20000E5
:108760000068704740F2000040F29811C2F2000029
:10877000C2F2000100780A681044086070470000E7
:1087800080B543F60040C4F20200016841F4007174
:108790000160016841F480610160016841F4807109
:1087A0000160032000F086F80F2000F005F800F0CB
:1087B00027F8002080BD000070B540F20006C2F22C
:1087C000000640F208013278C2F200014FF47A73D9
:1087D0000968B3FBF2F20446B1FBF2F1084600F07F
:1087E0005FFB0F2C4FF0010508D838B94FF0FF3070
:1087F00021460022002500F031F87460284670BD43
:1088000082B0002043F640010190C4F202014A68A0
:1088100042F480424A604A6802F480420192019A1E
:108820000090086840F080500860086800F08050B0
:108830000090009802B07047002848BF704700F0D1
:108840001F01012202FA01F11C2202EAD0004EF2BD
:108850000012CEF2000281507047000010B54EF6B3
:108860000C5CCEF2000CDCF80030C3F3022E8EF06C
:108870000704042C28BF0424BEF103034FF0FF3E7D
:108880000EFA04F438BF0023A14399400EFA03F313
:108890009A43114300F00F0200F160430901043ACA
:1088A00003F564436244002848BF02F10C031970C9
:1088B00010BD00004EF60C51CEF200010A684FF6D2
:1088C000FF031A4060F30A2242F0806040F0FD701E
:1088D00008607047002804BF012070472DE9F0416F
:1088E00043F60808C4F202080446D8F8F8030D4617
:1088F00000F00700884207D288F8F853D8F8F80348
:1089000000F00700A84277D12068810717D54107FA
:1089100005D5D8F8001041F4E051C8F8001001075F
:1089200005D5D8F8001041F46041C8F80010D8F817
:108930000010A26821F0F0011143C8F80010C00730
:1089400040D1D8F8F80300F00700A84207D988F80A
:10895000F853D8F8F80300F00700A8424CD120687B
:10896000410707D5D8F80010E26821F4E05111431F
:10897000C8F80010000708D5D8F80000216920F4D5
:10898000604040EAC100C8F8000000F07DF8D8F867
:1089900000104AF2E242C1F30311C0F60002515C3A
:1089A00040F2080220FA01F140F20400C2F2000095
:1089B0000068C2F200021160FFF7FEFE0020BDE871
:1089C000F08100BF6068811E022907D258F8081C98
:1089D00089015CBF0120BDE8F08111E0012807D1C9
:1089E00058F8081C89035CBF0120BDE8F08107E04E
:1089F00058F8081C890703D40120BDE8F08100BFA6
:108A0000D8F8001021F003010843C8F80000FFF770
:108A1000A3FE064641F28837D8F80000616800F0EE
:108A20000C00B0EB810F8CD0FFF796FE801BB84294
:108A3000F2D90320BDE8F08140F2080043F60801B6
:108A4000C2F20000C4F20201006809684AF2F24270
:108A5000C1F38221C0F60002515CC840704700009B
:108A600040F2080043F60801C2F20000C4F202011D
:108A7000006809684AF2F242C1F34231C0F60002CE
:108A8000515CC8407047000010B543F60404C4F2BE
:108A90000204606800F00C0008280BD0042819BFFD
:108AA00042F20040C0F2F40047F64000C0F27D10F0
:108AB00010BD00BF206821682368490247F64001C5
:108AC000C0F27D1100F03F02C3F388105CBF42F298
:108AD0000041C0F2F401A1FB00010023FFF7E0FB1D
:108AE00021680222C1F3014102EB4101B0FBF1F028
:108AF00010BD0000002804BF012070472DE9F0419F
:108B000082B00446007843F60006C007C4F20206AD
:108B10000CD0B06800F00C00042840F08180306870
:108B2000800303D56068002800F068812078800702
:108B30001BD5B06810F00C0F09D0B06800F00C0025
:108B4000082840F087807068400200F18380306818
:108B5000800703D5E068012840F050813068216922
:108B600020F0F80040EAC10030602078000713D4FC
:108B7000207840072AD4A569002D00F03A81B0681A
:108B800000F00C00082840F0A580012D40F00E8177
:108B9000012002B0BDE8F0816069002800F0828009
:108BA0000020C4F247200121C0F8801EFFF7D4FD49
:108BB000054600BF706F8007DAD4FFF7CDFD401B7C
:108BC0000228F7D9032002B0BDE8F081306C5FEADB
:108BD000C0080AD400200190306C40F0805030640E
:108BE000306C00F080500190019847F20007C4F209
:108BF00000073868C00547D4386840F48070386092
:108C0000FFF7AAFD054600BF3868C0053CD4FFF752
:108C1000A3FD401B0228F7D9032002B0BDE8F08174
:108C2000B06800F00C00082803D1706840023FF5DE
:108C300076AF61683068B1F5803F07D0B1F5A02FFD
:108C400040F09A8040F480203060306840F48030FA
:108C500030609AE0E068002840F20000C4F247204B
:108C60005CD001210160FFF777FD05463068800781
:108C70003FF574AFFFF770FD401B0228F6D90320C3
:108C800002B0BDE8F08100BFA168306F012905D0B6
:108C9000052955D140F004003067306F40F00100E5
:108CA000306756E00020C4F247200021C0F8801E43
:108CB000FFF752FD054600BF706F80077FF558AF84
:108CC000FFF74AFD401B0228F6D9032002B0BDE899
:108CD000F08100BF0027C4F2472700203866FFF765
:108CE0003BFD022D05460DD13068800140F18A80A0
:108CF000FFF732FD401B02284FF00300F4D902B009
:108D0000BDE8F0813068800173D5FFF725FD401B79
:108D100002284FF00300F5D9F1E700BF0021016000
:108D2000FFF71AFD054600BF306880077FF51DAFCD
:108D3000FFF712FD401B02284FF00300F4D9DEE7D5
:108D400020F001003067306F002920F00400306708
:108D50007AD0FFF701FD054641F28837306F800772
:108D600000F18480FFF7F8FC401BB842F6D90320DD
:108D700002B0BDE8F08100BF20F480303060306880
:108D8000002920F4802030607AD0FFF7E5FC05460A
:108D9000306880033FF5CAAEFFF7DEFC401B642855
:108DA000F6D9032002B0BDE8F08100BF7068E16928
:108DB00000F480028A4221D1216A00F03F028A42F7
:108DC0001CD147F6C071626A0140B1EB821F15D118
:108DD000A16A4FF6FF73C903994300F44032A1F52D
:108DE00080318A420AD1E16A00F07060B0EB016F15
:108DF00004D1002002B0BDE8F08100BF012002B024
:108E0000BDE8F08104F11C052FCD084340EA821033
:108E1000D9034FF6FF729143A1F5803140EA056016
:108E20000843706001203866FFF796FC044600BFD7
:108E300030688001DDD4FFF78FFC001B02284FF063
:108E40000300F5D95BE700BFFFF786FC054641F25A
:108E5000883700BF306F800708D5FFF77DFC401BC7
:108E6000B8424FF00300F5D949E700BFB8F1000F51
:108E70003FF581AE306C20F0805030647BE600BF5F
:108E8000FFF76AFC054600BF306880037FF54EAEF1
:108E9000FFF762FC401B64284FF00300F4D92EE773
:108EA000411E0020B0EB116F1CBF012070474EF235
:108EB0001002CEF2000251604EF62351CEF20001B4
:108EC000F0230B700721906011607047704700001D
:108ED0007047000090F83C20012A4FF0020241D078
:108EE00010B580F83D200268D2F804E0D2F808C03E
:108EF0000C682EF07003234340F6FF34C4F20004E4
:108F0000A242536010DCB2F1804F1ED040F2004309
:108F1000C4F200039A4218D040F60003C4F20003E2
:108F20009A4212D016E000BF40F60043C4F200039C
:108F30009A420AD044F20003C4F201039A4204D0D8
:108F40000023C4F201039A4204D149682CF0800343
:108F5000194391600121002280F83D1080F83C20E7
:108F6000BDE810401046704770B540F27005C2F27F
:108F700000056978A1B16978012918BF70BD002189
:108F80000446002600F060FDA86024686662A868B8
:108F90006968884218D9A8686968401A1EE000BF4D
:108FA00000210446002600F04FFD68600120687033
:108FB0002068016A21F00A010162016A41F00201A0
:108FC00001622E7070BD00BF6868A968884206D92A
:108FD0006868A968081A4FF6FF710844E860E868F5
:108FE00001F061F99FED0E0B53EC102B01F06EF9BF
:108FF00001F02AF9688000206870206A012620F0BC
:109000000A002062206A206240F2C800C2F200001A
:109010000068C16821F00201C1602E7070BD00BF00
:109020009CC420B07268913F90F83C30012B04BF83
:1090300002207047F0B50368D1E900C4D1F80CE014
:109040001D6A082A38D0042A1ED0002A4ED125F0E5
:1090500001021A621A4640F6FF3752F8186F1D6A6D
:10906000C4F20007BB4261DCB3F1804F6FD040F225
:109070000047C4F20007BB4269D040F60007C4F2C3
:109080000007BB4263D07BE025F010021A621A464B
:1090900052F8185F24024FF2FF071E6ABC4325F402
:1090A00073456EF30F3444EA050726F0A0060CF072
:1090B0000A0546EA051630E025F480721A621A465F
:1090C00052F81C5F1E6A25F0F3056EF3071444EA9C
:1090D000050726F420660CF00A0546EA0526176007
:1090E0001E62136823F00C03136040E025F48052E5
:1090F0001A621A4652F81C5F24024FF2FF071E6ADA
:10910000BC4325F473456EF30F3444EA050726F497
:1091100020460CF00A0546EA053617601E62136801
:1091200023F4406313608968090221E040F6004798
:10913000C4F20007BB420AD044F20007C4F20107A0
:10914000BB4204D00027C4F20107BB4218D126F06D
:109150000306344325F00A070CF00A066EF30714E1
:1091600037449C611F629F6927F00C079F618968E3
:10917000136819431160002180F83C100020F0BDF5
:1091800046F00104E6E70000002804BF0120704714
:1091900010B590F83D1031B9002180F83C1004461C
:1091A00000F090F82046022180F83D10016840F25E
:1091B000FF740B68C4F2000440F2000CA142C4F238
:1091C000010C1DDD40F60002C4F20002914220D0E5
:1091D00061451ED040F60042C4F20002914218D010
:1091E0004FF6FF72C4F2000291421CDCA14225DC62
:1091F000B1F1804F3AD040F20042C4F2000233E0B5
:10920000B1F1804F05D040F20042C4F20002914219
:10921000E6D1826823F0700313434FF6FF72C4F265
:1092200000029142E2DD44F2FF32C4F201029142B7
:1092300010DC61451AD044F2000213E040F600024F
:10924000C4F20002914211D040F60042C4F2000282
:109250000AE000BF44F60002C4F20102914205D0C8
:1092600044F20042C4F20102914203D1026923F4A4
:1092700040731343846923F08002D0F804E0C3688C
:10928000224361450A60CB62C1F828E002D14269FD
:10929000CCF8302001224A6180F8462080F83E2038
:1092A00080F83F2080F8402080F8412080F842205C
:1092B00080F8432080F8442080F8452080F83D2045
:1092C000002010BD80B586B040F600010068C4F2F1
:1092D0000001002288420592CDE903220292019208
:1092E00002D006B080BD00BF43F630000092C4F249
:1092F0000200036943F004030361036903F00403FC
:109300000093009B0092036843F00203036000682F
:1093100000F0020000900098402001900220CDE96A
:109320000202CDE9042001F5FE3001A9FFF73EF964
:109330001E2000210022FFF791FA1E20FFF77CFA81
:1093400006B080BD31B3042908D0082919BF4FF0F9
:10935000450C41234FF0440C402302E04FF0430CF6
:109360003F23C25C10F80C30012A4FF0010208BF05
:10937000012B19D10222082918D0042920D180F804
:109380003F2080F843204FEAB1020068032A20D929
:1093900028E000BF90F83E2090F84230012A4FF0BC
:1093A000010208BF012B5DD01046704780F84020B5
:1093B00080F844204FEAB1020068032A09D911E07D
:1093C00080F8412080F845204FEAB1020068032A66
:1093D00008D84AF2FC43C0F6000353F82220C368C1
:1093E0001A43C26001F01F010122036A02FA01F16F
:1093F00023EA01020262026A114340F6FF32C4F21C
:109400000002904201620FDCB0F1804F1DD040F2AB
:109410000041C4F20001884217D040F60001C4F2B6
:109420000001884211D017E040F60041C4F200016B
:1094300088420AD044F20001C4F20101884204D0FB
:109440000021C4F20101884206D1816801F00701C0
:10945000062904BF00207047016841F00101016046
:1094600000207047022280F83E2080F842204FEA18
:10947000B1020068032AACD9B4E7000010B5016856
:1094800004460869800744BFC8685FEA807039D421
:109490000869400744BFC8685FEA40703ED4086965
:1094A000000744BFC8685FEA007045D40869C00679
:1094B00044BFC8685FEAC0604AD40869C0071CBFDF
:1094C000C8685FEAC07051D10869000644BFC86827
:1094D0005FEA006052D40869400644BFC8685FEA8A
:1094E000406053D40869800646BFC8685FEA806060
:1094F00010BD6FF0200220460A61BDE81040FFF762
:10950000E7BC00BF6FF00200086101202077886986
:10951000800743D02046FFF727FD45E06FF00400A9
:10952000086102202077886910F4407F40D02046EF
:10953000FFF71AFD42E000BF6FF008000861042049
:109540002077C86980073DD02046FFF70DFD3FE03A
:109550006FF01000086108202077C86910F4407F80
:109560003AD02046FFF700FD3CE000BF6FF001005D
:109570000861204600F066FA2168A5E76FF08000D8
:1095800008612046FFF7A2FC2168A4E76FF04000C5
:109590000861204600F064FA2168A3E7204600F045
:1095A00025F8204600F0D4F92168002020776FE7E5
:1095B000204600F01BF8204600F0CAF92168002080
:1095C00020776CE7204600F011F8204600F0C0F943
:1095D00021680020207769E7204600F007F8204640
:1095E00000F0B6F921680020207766E77047000098
:1095F00090F83C30012B04BF022070474FEAB202C2
:10960000032A00F2E7802DE9F043DFE802F003A32C
:10961000397300BF036800261A6AC4F2010622F0FB
:1096200001021A621D6A1A465C6852F818CFB342EA
:109630008E68D1F800E025F0020545EA06050CD158
:10964000CE68D1E9057824F4407425F00C0526F0A5
:1096500004063C43354344EA08042CF0730747EA08
:109660000E075C609F614F6809695F631D629F69B7
:1096700047F008079F619F6927F004079F61A4E0F6
:10968000036800261A6AC4F2010622F480721A6284
:109690001D6A1A46D3F804C052F81CEFB3428E6814
:1096A0000C6825F4007545EA06250FD1CE68D1E98E
:1096B0000598360240F2FF4725F44065BE43354326
:1096C0002CF4405748EA090647EA061C2EF07307B7
:1096D0002743C3F804C0DF614F680969DF631D6277
:1096E000DF6947F00807DF61DF6927F00407DF6102
:1096F0006BE000BF036800271A6AC4F2010722F476
:1097000080521A621A46D3F820C05D6852F81C4F86
:10971000D1F800E08E68BB4204D14F6925F4804542
:1097200045EA87152CF4005747EA063724F4E64645
:1097300046EA0E265D60DE614E6809691E641F629E
:10974000DF6947F40067DF61DF6927F48067DF6165
:109750003AE000BF036800261A6AC4F2010622F04C
:1097600010021A621D6A1A46D3F804C052F8184F44
:10977000B3428E68D1F800E025F0200545EA0615D1
:109780000FD1CE68D1E905986FF0400725F0C005EC
:1097900007EA061635432CF4406748EA090647EA0B
:1097A000860C24F4E64444EA0E27C3F804C09F6103
:1097B0004F6809699F631D629F6947F400679F6155
:1097C0009F6927F480679F6109021368194311603C
:1097D000BDE8F043002180F83C10002070470000F5
:1097E000002804BF0120704710B590F83D1031B932
:1097F000002180F83C10044600F090F82046022139
:1098000080F83D10016840F2FF740B68C4F2000458
:1098100040F2000CA142C4F2010C1DDD40F6000232
:10982000C4F20002914220D061451ED040F60042B1
:10983000C4F20002914218D04FF6FF72C4F2000247
:1098400091421CDCA14225DCB1F1804F3AD040F2BC
:109850000042C4F2000233E0B1F1804F05D040F283
:109860000042C4F200029142E6D1826823F0700304
:1098700013434FF6FF72C4F200029142E2DD44F25C
:10988000FF32C4F20102914210DC61451AD044F269
:10989000000213E040F60002C4F20002914211D02F
:1098A00040F60042C4F200020AE000BF44F60002A3
:1098B000C4F20102914205D044F20042C4F2010216
:1098C000914203D1026923F440731343846923F066
:1098D0008002D0F804E0C368224361450A60CB628D
:1098E000C1F828E002D14269CCF8302001224A6157
:1098F00080F8462080F83E2080F83F2080F8402005
:1099000080F8412080F8422080F8432080F84420ED
:1099100080F8452080F83D20002010BD006840F20E
:109920000041C4F20001884218BF704781B0002096
:10993000009043F64000C4F20200016841F00201C9
:109940000160006800F002000090009801B07047CC
:1099500070470000C1B1042908D0082914BF412272
:109960004022825C012A05D016E000BF3F22825CC3
:10997000012A11D10222082910D0042914BF80F82D
:10998000412080F83F200BE090F83E20012A03D1CF
:10999000022280F83E2003E00120704780F840203A
:1099A000006801F01F010122036A8A4023EA0201D4
:1099B0000162036A4421C4F201011A43A1F1440384
:1099C0009842026216D040F6FF31C4F2000188428C
:1099D0001ADCB0F1804F28D040F20041C4F20001FF
:1099E000884222D040F60001C4F2000188421CD017
:1099F00022E000BF0A6842F400420A6040F6FF31EC
:109A0000C4F200018842E4DD40F60041C4F20001E6
:109A100088420AD044F20001C4F20101884204D015
:109A20000021C4F20101884206D1816801F00701DA
:109A3000062904BF00207047016841F00101016060
:109A400000207047704700004FEAB101032984BF2E
:109A500000207047006800EB8100406B70470000F9
:109A600070470000002804BF0120704710B504466D
:109A700090F83D0028B9002084F83C00204600F012
:109A800021F8242084F83D002068C16821F40051A9
:109A9000C160204600F0B2FA2068016921F49041CB
:109AA0000161416921F02A014161C16841F400511D
:109AB000C16000202021206484F83D1084F83E100D
:109AC00010BD000080B586B0006841F20042C4F2CB
:109AD000010200219042CDE90411CDE9021101916A
:109AE00022D044F20041C4F20001884245D1002056
:109AF00043F630010090C4F202010A6942F40032D8
:109B00000A610A6902F400320092009A0090086823
:109B100040F00100086008680C2100F0010000908E
:109B2000009807201BE000BF43F630000091C4F20C
:109B30000200426942F020024261426902F02002C2
:109B40000092009A0091016841F0010101600068F3
:109B50004FF4C05100F001000090009808200191DE
:109B600002210291002103910321CDE9041000207C
:109B7000C4F2020001A9FEF719FD06B080BD000085
:109B80002DE9F04381B0044690F83E0020280DD125
:109B90000E4600294FF0010018BF002A02D101B083
:109BA000BDE8F08394F83C00012803D1022001B005
:109BB000BDE8F083012084F83C00002022211D46EE
:109BC000206484F83E1020631746FEF7C5FDA78584
:109BD000E785A1680746B1F5805F02D120690028BA
:109BE00066D0B0460026002084F83C00E08D0028B6
:109BF00056D005F101090CE040684FF000086FF302
:109C00005F2026F8020BE08D0138E085E08D00280A
:109C100046D02068016889060ED4B9F1000F19D02A
:109C200055B300BFFEF798FDC11B2068A94223D899
:109C300001688906F6D500BFB8F1000FDCD0A16835
:109C4000B1F5805F14D009B9216989B1406800F08D
:109C50007F000EE001688906EED4016889065CBFCA
:109C600001685FEA8161E7D401688906F2D5E3E71C
:109C7000406808F8010BC6E7C16821F4D071C160E3
:109C8000416921F001014161202084F83D0084F800
:109C90003E00002084F83C00032001B0BDE8F083C2
:109CA000202084F83E00002001B0BDE8F08300BF12
:109CB0004FF0000897E70000FEE700002DE9F043B1
:109CC00087B0002743F630000697CDE90477CDE949
:109CD00002770197C4F20200016840F2000941F0E6
:109CE000010101600168C4F2020901F00101019162
:109CF00001990197016809F5806541F00201016051
:109D000000684FF2800100F002000190019828469F
:109D100000224FF28006FEF719FD48464FF480619D
:109D200000224FF48068FEF711FD029602AE012476
:109D300028463146CDE903470597FEF737FC4846EC
:109D40003146CDE90284CDE90477FEF72FFC07B058
:109D5000BDE8F08370B590B040F2004540F280005D
:109D6000C4F200050021C2F200004FF6FF72CDE9F7
:109D70000811CDE90611CDE90411C0E90051C0E98F
:109D8000021201618161FFF72BFD002818BFFEF769
:109D900007FC40F28000C2F2000008A9FFF79AF821
:109DA000002818BFFEF7FCFB40F280046020C2F2DE
:109DB00000040190002601A920460022CDE9026698
:109DC0000596FFF715FC002818BFFEF7E9FB206891
:109DD0000F96A842CDE90D660C960B9602D010B0F6
:109DE00070BD00BF002043F630010A90C4F20201AA
:109DF0000A6842F001020A60096801F001010A9153
:109E00000A9940210B910221CDE90C10CDE90E01F8
:109E100005F5FE300BA9FEF7C9FB10B070BD0000C0
:109E200080B586B040F2C80040F600020021C2F2C0
:109E30000000C4F2000253234FF6FF7CCDE9041169
:109E4000C0E90023C0E9021C01618161FFF79CF9B0
:109E5000002818BFFEF7A4FB40F2C800C2F20000C1
:109E600004A9FFF737F8002818BFFEF799FB002078
:109E700001210090CDE90110039040F2C800C2F228
:109E8000000069460022FFF7CFF8002818BFFEF750
:109E900087FB06B080BD000080B540F2101044F290
:109EA0000041C2F20000C4F2000100234FF00C0C8C
:109EB0004FF4E13280E80E00C0E90333C0E905C386
:109EC000C361FFF7CFFD002808BF80BDBDE880401B
:109ED000FEF766BB80B540F2541041F20041C2F279
:109EE0000000C4F2010100234FF00C0C4FF4165295
:109EF00080E80E00C0E90333C0E905C3C361FFF782
:109F0000B1FD002808BF80BDBDE88040FEF748BB1A
:109F1000FEE70000FEE70000704700007047000009
:109F2000FEF720BC70B592B006AC20463021FEF79B
:109F30002FFA002543F640000595CDE90355CDE9FC
:109F400001550095C4F202000168022641F08051DB
:109F50000160006800F080500090009847F2000017
:109F60000095C4F20000016866F38F31016000685B
:109F700000F44040009000980120099010200A90C1
:109F800008200E905420CDE90F06042011902046A1
:109F90000696CDE90C65FEF7ADFD28B1EFF3108014
:109FA00072B600BFFEE700BF0F20CDE901064FF4F7
:109FB0008050CDE9040501A802210395FEF78AFC33
:109FC00020B1EFF3108072B6FEE700BF12B070BD93
:109FD0004EF68850CEF20000016841F47001016035
:109FE00048F20001C0F6000140F8801C70470000F4
:109FF00040F2C800C2F20000FFF740BAB0B5044614
:10A00000006804F108030ECB0569194325F4405597
:10A010002A4302616269E3691143C268194349F244
:10A020000C639A431143C1604169A26921F44071F4
:10A0300041F20043114340F48062C4F201039A42AA
:10A04000416103D1FEF70CFD02E000BFFEF7F4FC16
:10A05000E1694FF69C7563681922C0F6FF75B1F58A
:10A06000004FA0FB02011FD15A00DB0FFEF718F9C9
:10A0700048F21F51C5F2EB11A0FB01235A0905F16B
:10A08000805302FB0300322303EBC000A0FB01015D
:10A090004FF4F87000EA111000EB0210C1F3421106
:10A0A000084421688860B0BD9A009B0FFEF7F8F85D
:10A0B00048F21F51C5F2EB11A0FB01235A0902FB24
:10A0C0000500322303EB0010A0FB0101F02000EAA1
:10A0D000511000EB0210C1F343110844216888605D
:10A0E000B0BD0000B0B504460068A1880122FEF7AB
:10A0F0002DFB40F2C805C2F200052868002141622C
:10A10000416A042908D8416A042905D8416A04290A
:10A1100002D8416A0529F3D32068A1880022FEF7FE
:10A1200015FB2868C16841F00201C160B0BD0000A4
:10A13000FEE7000082B040F200080024C4F20208EA
:10A140008DF80740FEF71CFBFFF7ECFEFFF7B6FDAE
:10A15000FFF700FEFFF764FEFFF79EFEFFF7BAFE73
:10A1600040F28005C2F2000528460021FFF7F2FB0D
:10A170002868B6EE001A90ED0B0A0021B8EE400AEE
:10A1800020EE010ABCEEC00A80ED0D0A40F2C800C4
:10A19000C2F20000FFF7D6F840F2700740F2541503
:10A1A0004AF22C59C2F20007C2F200050DF107066F
:10A1B000C0F60009387810B14846FFF793FF2846EB
:10A1C000314601221423FFF7DBFC9DF8070000282D
:10A1D00004BF8DF807402046044642381128E9D8CC
:10A1E000DFE800F0100E0E0E1C0E0E0E0E0E140EFA
:10A1F0000E0E0E0E180A00BFFEF7B0F9DAE700BF28
:10A20000D8E700BFFEF72AF9D4E700BFFEF766F9EA
:10A21000D0E700BFFEF782F9CCE700BF78881428AA
:10A2200008D8FEF79BF940464FF480610122FEF703
:10A230008DFABFE740464FF480610022FEF786FAB0
:10A24000FEF72CF9B6E700004FEA41034FEA5353FB
:10A25000A3F58063D3F11E03C8BFD3F1210C0CDD3D
:10A260004FF0004242EAC12242EA505232FA03FC65
:10A270008CEAE17CACEBE1707047102BC4BF00208E
:10A28000704703F5787CBCF1FF3F04D06FF00042CB
:10A2900082EA2100704770B500F0C2F8499224802C
:10A2A00000207047F2E7B0FA80F310FA03F10AD009
:10A2B000C3F11D0303F580634FEA03524FEA415097
:10A2C00002EBD12170474FF00000704770B5DFF806
:10A2D00048C11CEA111E1EBF1CEA13159EEA0C0F92
:10A2E00095EA0C0F00F06F8081EA03044EEAD47EF9
:10A2F000AE4421EA4C1123EA4C1341F4801143F49B
:10A300008013AEF17F7EA1FB024CA0FB03653619E2
:10A3100055EB0C05A1FB034C4CF10003A0FB021C08
:10A3200016EB0C06654153F10003094218BF46F0D5
:10A33000010613F4007F0BD14FEA03314FEA0530D9
:10A3400041EA155140EA165034036FF003020AE067
:10A350004FEAC3214FEAC52041EA555140EA565021
:10A36000F4026FF0020202EB2E4201EB025585EA85
:10A37000CE710AD05FEA440C18BF24F0004450F1BB
:10A38000000041F1000120EAD47040F2FE7C6245F9
:10A3900000D270BDA84214BF4FF080444FF040443B
:10A3A000002E08BF0024BEF1806FA8BFA1F1C041FC
:10A3B000BDE8704080F2828001F1C04101F00041AF
:10A3C0004FF0000070470CEA13159EEA0C0F18BFFF
:10A3D00095EA0C0F06D081EA030E4FF000000EF054
:10A3E000004170BD00F01CF88900013E00F007B884
:10A3F00000F009B84FEA430C5FEA5C5C08D081EAE0
:10A40000030100F05BB84FEA410C5FEA5C5CF6D1F7
:10A4100002494FF0000070470000FF070000F87F7E
:10A420000EF1020E2EF0030E5EF8046B364205D4D8
:10A43000012A43EB030515F5001F12D8012841EB53
:10A44000010C1CF5001F0CD80ED14FEAD17C0CEB8F
:10A450004C0C0CF1020C15F5001F08BF4CEBD37C23
:10A4600004E04FF0080C01E04FEAD37C0CEB4C0504
:10A4700026FA05F606F00706B6F1040C06D20EEB36
:10A48000860CBDE870404CF0010C6047DFE80CF032
:10A49000090B02024FF00041A1F500214FF000002E
:10A4A00070BD19461046012851EB010418BFD4F5C0
:10A4B000001484BF002001F0004170BD0808A0F521
:10A4C00000114FEA31017047F1EE100A4FF6FF71AB
:10A4D000C0F2C03120EA010040F04070E1EE100A05
:10A4E000704700000000000000000102030406079E
:10A4F000080900000000010203040000020000003F
:10A50000040000000800000010000000FDFFFFFF35
:10A51000FBFFFFFFF7FFFFFFEFFFFFFFFFFDFFFF69
:10A52000FFFBFFFFFFF7FFFFFFEFFFFF000402400D
:10A530008000400058A50008000000201000000026
:10A54000F881000868A500081000002090070000AE
:10A550001882000800000000010000001000000048
:08A560000024F40000000000DB
:0400000508008195D9
:00000001FF
