:020000040800F2
:10000000C00800200D030008FD3B0008D13800089F
:10001000F93B00086523000861400008000000006B
:10002000000000000000000000000000453D000846
:100030006923000800000000013C0008493D000859
:1000400027030008270300082703000827030008E8
:1000500027030008270300082703000827030008D8
:1000600027030008270300082703000827030008C8
:1000700027030008270300082703000827030008B8
:1000800027030008270300082703000800000000DA
:10009000000000000000000000000000270300082E
:1000A0002703000827030008270300082703000888
:1000B0002703000827030008270300082703000878
:1000C0002703000827030008270300082703000868
:1000D000270300082703000827030008000000008A
:1000E000270300082703000827030008000000007A
:1000F00000000000000000000000000027030008CE
:100100000000000027030008270300082703000859
:1001100000000000000000000000000000000000DF
:100120002703000827030008270300082703000807
:10013000270300080000000000000000000000008D
:10014000000000000000000000000000270300087D
:1001500027030008270300082703000827030008D7
:10016000270300082703000800000000000000002B
:10017000000000000000000000000000000000007F
:10018000000000002703000800000000000000003D
:100190002703000800F002F800F0A8F814A696E87B
:1001A000000CB244B344DA4501D100F09FF8BAE83C
:1001B0000F000FA696E83000A5EB040504EB060738
:1001C000AAEB0704A7F101074FEA15154FEA34140B
:1001D000A4F10104AC4201D300F088F813F0010F40
:1001E00018BFFB1A43F0010300F001F8DBE71847E2
:1001F000804C0000A04C0000103A24BF78C878C1A1
:10020000FAD8520724BF30C830C144BF04680C601C
:1002100070470000704700000023002400250026DE
:10022000103A28BF78C1FBD8520728BF30C148BF59
:100230000B6070476E2900F0DB81702900F01D8390
:10024000662904F0A083652904F09D83672904F0E2
:100250009A83612904F0998303681B0A28BF41F03F
:100260008001692900F08881642900F08581752961
:1002700000F082816F2900F0AB82782900F0E982DA
:10028000E92900F04582E42900F04282F52900F0D6
:100290003F82EF2900F0A882F82900F0E882036885
:1002A000DB0928BF41F08001632900F0EF87732943
:1002B00000F0F487E32900F0FF87F32901F00480C0
:1002C000002070471FB504F051FB01F053F8040003
:1002D0000020002104F034FB401C6060002000215D
:1002E00004F018FBE0601FBD10B510BD01F014F85C
:1002F0001146FFF7E7FF03F0B5FE01F0F1F803B494
:10030000FFF7F2FF03BC01F0F5F800000948804751
:1003100009480047FEE7FEE7FEE7FEE7FEE7FEE7E7
:10032000FEE7FEE7FEE7FEE704480549054A064BFF
:10033000704700004D3D000895010008C0020020F4
:10034000C0080020C0040020C004002053EA020CB2
:1003500000F069802DE9F04B4FF00006002B1FBF25
:10036000B3FA83F503FA05F424FA05F65E4012BFEA
:100370001643B2FA82F502FA05F4C5F120051EBF54
:1003800022FA05FC44EA0C04203556EA044C4FEAF4
:10039000144418BF641C4FF000084FF0000990424D
:1003A00071EB030C39D3002919BFB1FA81F701FAB7
:1003B00007F6B0FA80F700FA07F6C7F120071EBF6C
:1003C00020FA07FC46EA0C062037B6FBF4FCA7EB44
:1003D0000507103F07F01F0BCBF120062CFA06F69D
:1003E0000CFA0BFB44BFB3460026202FA4BF5E4689
:1003F0004FF0000B5BEA060C08BF4FF0010B19EB46
:100400000B0948EB0608ABFB027C06FB02CC0BFB9E
:1004100003CCC01B71EB0C01C1E70B460246414601
:100420004846BDE8F08B13B5084318BF4FF0FF30C6
:100430000146AFF30080BDE81C4070471CB50C4678
:10044000064B7B4469460090204600F0EAF80446DB
:100450000020694600F0F8F820461CBD03020000A9
:100460004FF0000200B5134694469646203922BF4D
:10047000A0E80C50A0E80C50B1F12001BFF4F7AF98
:10048000090728BFA0E80C5048BF0CC05DF804EB7A
:10049000890028BF40F8042B08BF704748BF20F8E8
:1004A000022B11F0804F18BF00F8012B70477047E6
:1004B0007047704770B5044685690068C10601D56C
:1004C000302600E02026C00707D070BDD4E9012106
:1004D00030469047206A401C20626D1EF6D570BDE4
:1004E00070B5044685690078C00707D170BDD4E9AE
:1004F000012120209047206A401C20626D1EF6D505
:1005000070BD09684A0501D540B27047C905FCD5E0
:1005100000B2704709684A0501D5C0B27047C905E5
:10052000FCD580B2704770B50C460546012A05D04F
:100530002878800600D5EA69002302E0012305E05F
:100540005B1C934202D2E05C0028F9D1A869E6184E
:10055000C01AA861286A184428622846FFF7AAFF33
:1005600004E0D5E9012114F8010B9047B442F8D317
:100570002846FFF7B5FF70BD2DE9F041064600247F
:1005800010687529314616A510D0FFF7BAFF00286C
:1005900002DA404213A507E031688A0701D512A5A7
:1005A00002E0490704D511A5012401E0FFF7B2FFDD
:1005B00000210A2206F1240709E0B0FBF2FCB0FB9F
:1005C000F2F302FB1C00303078541846491C002816
:1005D000F3D123462A463046BDE8F04100F066BA22
:1005E000000000002D0000002B0000002000000093
:1005F00011680268006A530501D508700AE0D30546
:1006000001D5088006E0130603D5C217C1E9000230
:1006100000E008600120704701694A1C0261087807
:10062000704700B58FB0CDE9013100210591054932
:100630007944CDE903101146684600F029F90FB05E
:1006400000BD0000E5FFFFFF0A6802F8010B0A6029
:10065000704700002DE9FF5F15468A460446DFF823
:10066000AC80F8440027D8E900103E46CDE90010E0
:1006700010E03AF816106A4602A800F029FE411C64
:1006800007D02178890603D5E269391891420DD83F
:100690000744761C2078800602D5E069B84205DD63
:1006A000AE42E6DB3AF816000028E2D1A069C01B92
:1006B000A0612046FFF7FEFED8E90010CDE900104A
:1006C000002017E03AF818106A4602A800F000FE71
:1006D000B0F1FF3F81460BD000250DF1080B05E07E
:1006E000D4E901211BF8050090476D1C4D45F7D357
:1006F00008F10100B0428046E4DB206A3844206201
:100700002046FFF7EDFEBDE8FF9F00002A430000F2
:100710002DE9F0418046D21D22F007020025D2E9E2
:100720000002F52915A614D0011E72F1000106DAA7
:100730000023D0EB030063EB020211A608E0D8F817
:1007400000108B0701D50FA602E0490701D50EA6C0
:1007500001251146002408F1240704E000F061F9A6
:1007600030323A55641C50EA0102F7D12B4632462A
:1007700021464046BDE8F04100F098B90000000075
:100780002D0000002B0000002000000030B40021EC
:1007900000F1240408E002F00705D208303542EAEF
:1007A0004372DB086554491C52EA0305F3D104681F
:1007B000002310A2250708D504F020040C4304D020
:1007C000C46901230CA2641EC46130BC00F06EB980
:1007D00010B5044621461068FFF79CFE02462046ED
:1007E000BDE810400023D1E7D21D22F00701D1E976
:1007F0000023CBE70000000030000000F0B40D46FD
:100800000188090502D5214C7C4402E01F4C7C4440
:100810000E34002100F1240608E002F00F0712094F
:10082000E75D42EA03721B097754491C52EA030749
:10083000F3D102780023120704D5702D06D009B138
:10084000022311342246F0BC00F030B901231034E9
:10085000F8E770B504460D4621461068FFF75AFECA
:10086000024629462046BDE870400023C6E7D21D57
:1008700022F00703D3E90023C0E70368126843F0BE
:10088000200303600823C3610023B7E78C41000005
:100890002DE9F05F894604464FF0000ADFF874B195
:1008A000FB44C0F820A02046E1688847002874D0A7
:1008B000252806D0D4E901219047206A401C2062F7
:1008C000F1E700265F462046E16888472028054674
:1008D00007DB312D05D2781910F8200C08B106433A
:1008E000F1E7B00701D526F00406C4F81CA00027E4
:1008F000C4F818A02A2D09D0284604F003F838B30C
:1009000004EB8708303DC8F8185019E059F8041B6B
:10091000204604EB87029161E1688847012F054674
:1009200018D1E069002820DA26F020061DE0D8F86A
:10093000180000EB800005EB40003038C8F81800C4
:100940002046E1688847054603F0DCFF0028EED129
:10095000012F0AD02E2D08D12046E16888477F1C40
:100960000546022F46F02006C4DBA069002803DA02
:10097000404246F00106A061F00701D026F01006C3
:100980006C2D0BD0682D09D04C2D39D06A2D35D067
:10099000742D35D07A2D33D016E038E0E1682F463B
:1009A00020468847B842054609D16C2F26D04FF41F
:1009B0008060E168064320468847054604E06C2FC6
:1009C0001AD04FF4807006430DB3A5F141001928E9
:1009D00002D8203546F400664A462946204626605D
:1009E0004E46FFF727FC80B101280BD0F61D26F0FC
:1009F000070000F1080956E74020E4E78020D8E727
:100A00000020D6E706F104094DE7284652E7206AA0
:100A1000BDE8F09F1C4100000048704730000020F6
:100A2000704730B5B0F10A0271F100034FEA900E41
:100A30004EEA817EB0EB0E0061EB91014FEA101E91
:100A40004EEA017E10EB0E0041EB11114FEA102E21
:100A50004EEA016E10EB0E0041EB11214FEA104EF1
:100A60004EEA014E10EB0E0041EB1141401841F1EE
:100A700000014FEAD00040EA41704FEAD1014FEA4D
:100A8000810444EA907410EB800544EB01046D1975
:100A900044EB0404521BA3414FF0000348BF0A3249
:100AA00000D530BD401C41F1000130BD2DE9F047BB
:100AB0000D4699469246044600F1240801688806CE
:100AC00004D5E06921F01001216000E00120A84276
:100AD00001DD471B00E00027A1697A1902EB09003C
:100AE000081AA0612078C00602D42046FFF7E2FC75
:100AF000002608E0D4E901211AF806009047206A90
:100B0000401C761C20624E45F4DB2078C0060AD5D6
:100B10002046FFF7CFFC06E0D4E9012130209047C2
:100B2000206A401C2062381EA7F10107F4DC07E0B0
:100B3000D4E9012118F805009047206A401C206282
:100B4000281EA5F10105F3DC2046FFF7C9FC20783B
:100B5000000602D50220BDE8F0870120FBE72DE961
:100B6000FF4F0C461E464FF0FF378BB0D2E9000115
:100B7000DDF860800A908A46C1F30A5505B93D4602
:100B8000002108464FF00000BAF1000F00F44000C9
:100B900005DA00EB80004FF4400101EA50004FEA13
:100BA0009059B9F1010F00DDB9460A9850EA4A00A0
:100BB0000ED044F61050A5F2FF3545432F14B8F17E
:100BC000000F1ED07542291E1EDDC9F100021CE077
:100BD000B8F1010F4FF0000001D0302103E0F243E3
:100BE00005E02154401CB042FBDB304600220021CE
:100BF00021540B99C1F80880C1E900200FB0BDE86D
:100C0000F08FBD1B6D1CDEE74A4600DA694206A87C
:100C100000F0F4FB06AB93E8070003AB83E80700A2
:100C200050460A9903F08EFA8DE80700A0F50050AF
:100C30001F3800900398002D0ADD42F21F014A463A
:100C40000844002303A90390684603F0F7FC09E079
:100C5000A0F500504A461F38002303A903906846B8
:100C600003F001FD8DE807000004000C03D04FF0F5
:100C7000FF30410800E01046B8F1000F03D0002219
:100C8000009215461EE0751E05D4FFF7CAFE3032ED
:100C900062556D1EF9D5B3460122084302D00022E9
:100CA0007F1C04E02078302801D100227F1E002A1A
:100CB000099784D01DE0112D07DAFFF7B2FE30321C
:100CC00062556D1C50EA0102F5D1084302D000982C
:100CD000C8B10EE00021681E05E0235C625C63542D
:100CE0002254401E491C8142F7DBAB46A81B401E24
:100CF0000990002004F80B000B98099AC0F80880AE
:100D0000C0E9002B7AE711264FF0000857E72DE9DC
:100D1000F04F88460446D21D22F0070191B0D1E978
:100D20000001CDE90A0103F0D5FD02460B98C00F82
:100D300001D02D2007E02068810701D52B2002E09B
:100D4000202101EAC000032A099001D0072A05DB0F
:100D500003464146204600F011FB0BE12078800657
:100D600001D5E06900E00620B8F1650F814606D0A4
:100D7000B8F1660F18D0B8F1670F70D131E00020DC
:100D8000B9F1110F009001DB112301E009F101031A
:100D90000AAA01A90CA8FFF7E2FEDDE90C70002603
:100DA00009F10105834647E001204B4600904FF0D2
:100DB00000470AAA01A90CA8FFF7D1FEDDE90DB092
:100DC0000C995D46002610B909F101000D18B9EB28
:100DD000050003D4C0F1FF3609F10105A5EB0900B8
:100DE0002BE0B9F1010F01DA4FF001090020B9F150
:100DF000110F0090484601DD112300E003460AAAC6
:100E000001A90CA8FFF7ABFEDDE90C704D460026EA
:100E10008346207800070AD4AB4500DA5D4601A876
:100E2000012D04DD411911F8011C302907D04F456F
:100E300002DA17F1040F04DA012082460FE06D1E7A
:100E4000EEE7002F02DCED1B3E4403E0781CA842D5
:100E500000DD7D1CB81B00F1010A4FF0004720782F
:100E6000000703D4AA4501DB4FF0FF3A0021B7F198
:100E7000004F0DF143088DF8431024D002202B239E
:100E8000002F01DA7F422D230A21021EA0F101006A
:100E900000DC5FB197FBF1FC97FBF1F201FB1C7CDE
:100EA00017460CF1300C08F801CDEEE7A8F101006F
:100EB00003702188090501D5452100E06521A0F1D5
:100EC000010800F8011C09980FA9A1EB0807FF1DF4
:100ED00000B10120411901EBEA70A1693844081AF8
:100EE000401EA0612078C00602D42046FFF7E2FA37
:100EF000099828B1D4E901219047206A401C20625A
:100F00002078C00622D52046FFF7D4FA1EE0002E36
:100F100004DBB34502DD01A8805D00E03020D4E9A8
:100F200001219047206A401C2062761CAAF1010032
:100F30005FEA000A0AD100F01DFAC0680168405C4F
:100F4000D4E901219047206A401C2062281EA5F1A7
:100F50000105DCDC07E0D4E9012118F8010B90471A
:100F6000206A401C2062381EA7F10107F3DC2046EE
:100F7000FFF7B6FA032011B041E600002DE9F04F6B
:100F800004460D46D21D22F0070089B0D0E9009733
:100F90004846394603F09EFC0246F80F01D02D2347
:100FA00007E02068810701D52B2302E0202101EA18
:100FB000C0038DF820300BB1012000E00020032A8F
:100FC000824601D0072A04DB2946204600F0D6F9E4
:100FD0003FE12078800601D40D2500E0E569C7F3E4
:100FE0000A560D2D49DA00214FEA175B08464FF0EB
:100FF0000000002F00F4400007DA00EB80004FF4FF
:10100000400100EBD07001EA60008115012901DD8B
:101010004FF0FF3100224FEA850CBCF1180F06D3C8
:101020001346ACF118004FF08052C24003E04FF479
:10103000801323FA0CF30CF10C0CBCF1200F04D339
:10104000ACF1200C09FA0CF001E007FA0CF00029D1
:101050004FF0004801DD18B90FE00ED140450CD328
:1010600019EB02095F4121B9404502D19F4329EAAA
:101070000209BBEB175F00D0761C2088000502D563
:101080007B48784402E07A487844193808AA30232B
:1010900002F80A30037C0AF10101002E0AF1020A6B
:1010A00053546A4602DC4FF0300101E04FF0310149
:1010B0004FF001088DF8001002D0A6F2FF3603E0D1
:1010C00059EA470100D06B4E002D02DC2178090758
:1010D00004D54FF002082E218DF80110C4460021DE
:1010E0000BE0C7F303433F01C35C491C6D1E02F8CC
:1010F0000830052908F1010801DA002DF1DC002192
:101100000CE000EB1973491C1B786D1E082902F8CE
:1011100008304FEA091908F1010801DA002DF0DC66
:1011200021688B0602D516E0A8F10108E04505DD2F
:1011300002EB080313F8013C302BF5D0B8F1000F97
:1011400009DD02EB080313F8013C2E2B03D109073C
:1011500001D4A8F10108002D05DD3E2102F8081098
:101160006D1E08F10108407C002E02F8080008F10D
:10117000010804DA2D20764202F8080002E02B2054
:1011800002F808000A214FF47A70864208F101083B
:101190000BDB96FBF0F3303302F8083096FBF0F3EC
:1011A00008F1010800FB136601E0642E0CDB6420EB
:1011B00096FBF0F3303302F8083096FBF0F308F1B9
:1011C000010800FB136601E00A2E06DB96FBF1F036
:1011D000303002F8080008F1010896FBF1F001FB3D
:1011E0001060303002F80800A16908F1010808EB2E
:1011F000050202EB0A00081AA0612078C00602D49A
:101200002046FFF757F9216A08AE01EB0A00206279
:1012100004E0D4E9012116F8010B9047BAF1010A64
:10122000F7D22078C00602D52046FFF743F96E4674
:1012300009E016F8010B3E280FD0D4E901219047B0
:10124000206A401C2062B8F10108F2D22046FFF764
:1012500047F909B00320BDE8F08F206A28442062D6
:1012600003E0D4E90121302090476D1EEBD3F8E76D
:101270005E39000002FCFFFF10B5436913B1AFF304
:10128000008001E0FFF74FF9012010BD127800F156
:1012900024010A7000224A700122EDE711684FF024
:1012A000FF32E9E710B5436913B1AFF3008001E005
:1012B000FFF7D0F9012010BD128800F124018284CB
:1012C0000022C2840122EDE711684FF0FF32E9E706
:1012D0002DE9F04116460C46054600F043F8036838
:1012E00093F80101012807D0FF2C12D8185D80B1B6
:1012F00001202C70BDE8F081D3F807013246214669
:1013000003F20713C7182846BC46BDE8F041002386
:1013100060474FF0FF30EDE77546FFF77DFBAE46C7
:1013200005006946534620F00700854618B020B5F1
:10133000FEF7FAFFBDE820404FF000064FF000072F
:101340004FF000084FF0000BAC46ACE8C009ACE829
:10135000C009ACE8C009ACE8C00921F007018D461E
:101360007047000010B500F005F8001D10BD00BF6B
:10137000D135000000487047500000202DE9F041B1
:101380001F46044603260168072A01F4006004DBB7
:1013900008B116A505E016A503E008B115A500E003
:1013A00015A521F010002060A069C01EA0610FB13A
:1013B000401EA0612046FFF77DF84FB1D4E901211E
:1013C00038469047206A401C2062C01C206206E01C
:1013D000206AFAE7D4E9012115F8010B9047761E3F
:1013E000F8D22046FFF77CF8BDE8F0814E414E0070
:1013F0006E616E00494E4600696E66002DE9F04749
:10140000814616468AB0354878440DC88DE80D00EF
:1014100032487844801C03AC0DC884E80D0041F6C6
:101420009B300844372190FBF1F290FBF1F5A5F1D8
:10143000800501FB12041B3C02D56442012000E040
:101440000020DFF898A080460027FA44AAF1BE0ADF
:101450000EE0E0070AD03246684607EB4701012359
:101460000AEB810103F0FFF88DE8070064107F1C90
:10147000002CEED1194F7F44AE3F19E0E80715D09C
:1014800007EB04100DF1180A90E80E008AE80E0030
:10149000C068F04201D1981908903246012306A98C
:1014A00003A803F0E0F803AB83E807006D10641CA9
:1014B000002DE3D14FF0010332466946B8F1000F29
:1014C00003A802D003F0BAF801E003F0CCF8C9E9B0
:1014D0000001C9F808200AB0BDE8F08768360000AE
:1014E00010B50446AFF300802046BDE81040FEF77B
:1014F00006BF000001491820ABBEFEE7260002002F
:1015000030B44FF0013C50F8042B51F8043BCCFAB6
:1015100052F4D51A20D1FCB950F8042B51F8043BF1
:10152000CCFA52F4D51A17D1B4B950F8042B51F8AB
:10153000043BCCFA52F4D51A0ED16CB950F8042BF6
:1015400051F8043BCCFA52F4D51A05D1002CDAD06C
:1015500030BC4FF00000704729BAB1FA81F111F0A8
:101560001801D1F120008440F2D1CA40CB4012F0E2
:10157000FF0213F0FF0330BCD01A70472DE9F04F83
:101580008BB00691016842688368C06840F25819C0
:101590000A9007A8C2F200090EC099F8A00099F8B5
:1015A000A12048408DF81C009DF81D0099F8A2303C
:1015B0009DF81E1099F8A3709DF81F6050408DF89B
:1015C0001D0081EA030099F8A4109DF820208DF8F1
:1015D0001E0086EA07008DF81F0082EA010099F8D4
:1015E000A5109DF821208DF8200082EA010099F8CD
:1015F000A6109DF822208DF8210082EA010099F8BA
:10160000A7109DF823208DF8220082EA010099F8A6
:10161000A8109DF824208DF8230082EA010099F893
:10162000A9109DF825208DF8240082EA010099F880
:10163000AA109DF826208DF8250082EA010099F86D
:10164000AB109DF827208DF8260082EA010099F85A
:10165000AC109DF828208DF8270082EA010099F847
:10166000AD109DF829208DF8280082EA010099F834
:10167000AE109DF82A208DF8290082EA010099F821
:10168000AF109DF82B2044F6A4278DF82A0082EA9B
:10169000010009F190040A26C0F600070DF11C0AAA
:1016A0008DF82B009DF81C0014F81019385C9DF87B
:1016B000295048407B5D8DF81C00607C9DF82620F9
:1016C00058409DF81D809DF82310BA5C8DF81D00D0
:1016D000A07C795C5040E27C9DF81E508DF81E0085
:1016E0009DF8200051409DF81F20385C8DF81F1098
:1016F000217D17F8083048408DF82000607D9DF866
:101700002A1058409DF821E0795C8DF82100A07DD9
:101710009DF8273048409DF822C0FB5C8DF82200E0
:10172000E07D9DF824105840795C8DF82300207EE0
:1017300017F80E3048408DF82400607E9DF8251083
:1017400058409DF82B307D5D8DF82500A07EFB5C18
:101750006840E57E8DF826009DF828006B40385CD7
:101760008DF82730237F795C5840637F8DF82800FF
:1017700083EA010017F80C108DF82900A07FBA5CED
:101780004840E17F8DF82A0081EA02008DF82B00A5
:10179000504602F09FF8013E012E83D89DF82900A3
:1017A0009DF8261017F80080785C9DF82060019065
:1017B000B85D9DF8221002909DF828009DF81C301D
:1017C000385C9DF821B004909DF825009DF82A20F2
:1017D000385C9DF81DE00390785C9DF81EA09DF894
:1017E00023509DF827409DF82BC0FB5C9DF824609A
:1017F00005909DF81F0099F800107D5D17F80EE028
:10180000BA5C3C5DBE5D17F80BB017F80AA017F87C
:101810000CC03F5C81EA030099F801108DF81C00B0
:1018200081EA080099F802108DF81D0001984840DF
:1018300099F803108DF81E0081EA050099F804104C
:101840008DF81F000298484099F805108DF8200087
:1018500081EA0E0099F806108DF8210081EA020055
:1018600099F807108DF8220081EA040099F8081011
:101870008DF8230081EA060099F809108DF82400FC
:1018800081EA0B0099F80A108DF8250081EA0A0018
:1018900099F80B108DF8260081EA0C0099F80C10CD
:1018A0008DF827000498484099F80D108DF828000D
:1018B0000398484099F80E108DF829000598484083
:1018C00099F80F108DF82A0081EA07008DF82B0097
:1018D0000899DDE9062010605160DDE9090190609A
:1018E000D1600BB0BDE8F08F2DE9F04788B0064617
:1018F00040F21800C2F2000092460D4602F0AAF82B
:1019000002F080F9102D03D2002008B0BDE8F08766
:10191000103E6FF00F070DF11008E94656F8100F52
:1019200004907068F168B2680791CDE905024046FD
:101930004946FFF723FE039B9DE816000AEB0700CC
:10194000C36184614261016107F130001037A84230
:10195000E4D9012008B0BDE8F087000083B0B0B53D
:101960009BB004461FA802AD0EC028466421FEF7B6
:1019700077FD1FAA284621460192FEF75FFD40F23F
:101980005420C2F20000294664224FF0FF3301F0D8
:101990005DFE01201BB0BDE8B04003B07047000001
:1019A00010B540F29004C2F200042046C821FEF7B0
:1019B00057FD40F21020C2F20000214601224FF0F4
:1019C000FF3301F061FD08B1002010BD214611F880
:1019D000012B40F21020C2F200004FF0FF3301F063
:1019E00053FD0028F0D16178A1F1100011280FD823
:1019F000DFE800F00A5C524E406032642C6C20201C
:101A000020202020562800BF00F09EFB012010BDA2
:101A1000FF290FD140F2102040F22801C2F200004D
:101A2000C2F2000101224FF0FF3301F00FFE00204F
:101A300010BD00BF44F6AE40C0F60000FFF78EFFB9
:101A4000002010BD00F08AF8012010BD34A0FFF77F
:101A500085FF012010BD00BF40F60000C4F2020067
:101A60004FF40051002201F03FF802F07DF901200F
:101A700010BD00BF48F20000C0F6000001684468D5
:101A800081F3088801F094F9A047012010BD00BF40
:101A900000F0DAFB012010BD00F042FA012010BD79
:101AA0000DA0FFF75BFF012010BD00BF00F0C8FADA
:101AB000012010BD00F042F9012010BD44F669502C
:101AC000C0F60000FFF74AFF012010BD09A0FFF794
:101AD00045FF012010BD00BF526561642074686538
:101AE000204F545020636F6E74656E7473200D0A1E
:101AF000000000005265616420616C6C20746865B0
:101B000020736563746F722070726F74656374699B
:101B10006F6E20737461747573200D0A00000000ED
:101B20005265616420646174612066726F6D206427
:101B30006966666572656E74206D656D6F72696544
:101B400073206F6620746865206D6963726F636FC0
:101B50006E74726F6C6C6572200D0A002DE9F0478F
:101B600088B059A0FFF7FAFE40F2900AC2F2000ACC
:101B70009AF8000040F208280AEB000151F8039C93
:101B8000C71E4FF00000C2F20008019012D040F2D0
:101B900008240021C2F2000401AD00261AF8010059
:101BA000294601902046012200F070FC0136F1B276
:101BB0008F42F3D8D8F8001048458A68044642F0AE
:101BC00001028A6044F6356144F65162C0F60001B4
:101BD000C0F6000208BF11460846FFF7BFFE4C459D
:101BE0003AD144F62050C0F60000FFF7B7FE40F2AD
:101BF000CD10ADF8040040F21020C2F2000001A99F
:101C000002224FF0FF3301F021FD9AF802405CB34D
:101C1000022C4FF0000030D0CC2C2ED0012C08BF6D
:101C2000552400F0F7FD20BB44F6F750C0F6000045
:101C3000FFF794FE022001900120CDE9040401A8E1
:101C400000F06CFD40B344F6B350C0F60000FFF75F
:101C500085FE00F0D5FD0FE044F60550C0F600000B
:101C6000FFF77CFEAB2008E0AA2400F0D3FD00289B
:101C7000DAD022A0FFF772FE00208DF8040040F2B7
:101C80001020C2F2000001A901224FF0FF3301F041
:101C9000DDFC08B0BDE8F08744F6D550C0F6000082
:101CA000FFF75CFE00F0A0FD0028E5D100F0A8FDE4
:101CB0000028E1D144F6DC40C0F600002146FFF7E1
:101CC0004DFE0120D9E700BF4368616E6765207251
:101CD0006561642070726F74656374696F6E206CE7
:101CE0006576656C206F6620746865207573657213
:101CF00020666C617368200D0A0000004661696C03
:101D00006564202D3E20556E6C6F636B2074686592
:101D100020464C415348204F7074696F6E20436FCA
:101D20006E74726F6C20526567697374657273208C
:101D3000616363657373200D0A0000002DE9F047AD
:101D400088B040F2900AC2F2000A9AF8001002200D
:101D50008DF807000AEB010050F8039C40F20828B8
:101D6000CF1E4FF00000C2F20008039012D040F2E4
:101D700008240021C2F2000403AD00261AF8010075
:101D8000294603902046012200F080FB0136F1B283
:101D90008F42F3D8D8F8001048458A68044642F0CC
:101DA00001028A6044F6356144F65162C0F60001D2
:101DB000C0F6000208BF11460846FFF7CFFD4C45AC
:101DC0002ED13EA0FFF7CAFD40F2CD10ADF80C00B9
:101DD00040F21020C2F2000003A902224FF0FF33AC
:101DE00001F034FC9AF803609AF802500024082E9F
:101DF00002943BD8681CC0B2082821D8FF2D21D0FE
:101E000044F64E50C0F60000FFF7A8FDC5F10800EB
:101E1000C0B2B04238BF06460020CDE9055615E0F5
:101E2000AB208DF80C0040F21020C2F2000003A994
:101E300001224FF0FF3301F009FC08B0BDE8F08744
:101E4000022413E022A0FFF789FD01200390012066
:101E500002240490079400F061FD03A802A900F099
:101E60007BFB029D00F0B6FC681C13D040F21020F2
:101E7000C2F200000DF1070101224FF0FF338DF88F
:101E8000074001F0E3FB1FA0FFF768FD08B0BDE8C5
:101E9000F08700BF03208DF8070040F21020C2F247
:101EA00000000DF1070101224FF0FF3301F0CEFBDE
:101EB0000FA0FFF753FD08B0BDE8F08745726173CE
:101EC000696E6720466C617368200D0A200000006F
:101ED000466C617368204D61737320657261736530
:101EE0002061637469766174696F6E200D0A000069
:101EF0005375636365737366756C204572617365B2
:101F0000200D0A00457261736520726571756573F5
:101F100074206661696C65642021210D0A0000004F
:101F20002DE9F04784B040F2900AC2F2000A9AF814
:101F3000000040F208280AEB000151F8039CC61E7D
:101F40004FF00000C2F20008029013D040F20824C3
:101F50000021C2F2000402AD002700BF1AF8010000
:101F6000294602902046012200F090FA0137F9B28A
:101F70008E42F3D8D8F8001048458A68044642F0EB
:101F800001028A6044F6356144F65162C0F60001F0
:101F9000C0F6000208BF11460846FFF7DFFC4C45BB
:101FA00026D11CA0FFF7DAFC42F20000CEF20400BA
:101FB000006840F210246FF31F30ADF8060040F2C5
:101FC000CD20C2F20004ADF80C0003A92046022285
:101FD0004FF0FF3301F03AFB0DF1060120460222DB
:101FE0004FF0FF3301F032FB04B0BDE8F08700BFD3
:101FF000AB208DF80F0040F21020C2F200000DF16E
:102000000F0101224FF0FF3301F020FB04B0BDE8C7
:10201000F08700BF47657474696E67204765742058
:1020200043686970204964656E74696669636174A8
:10203000696F6E204E756D626572200D0A2000007A
:102040002DE9F04782B040F2900AC2F2000A9AF8F5
:10205000000040F208280AEB000151F8039CC61E5C
:102060004FF00000C2F20008009013D040F20824A4
:102070000021C2F200046D46002700BF1AF80100DB
:10208000294600902046012200F000FA0137F9B2FB
:102090008E42F3D8D8F8001048458A68044642F0CA
:1020A00001028A6044F6356144F65162C0F60001CF
:1020B000C0F6000208BF11460846FFF74FFC4C452A
:1020C0001ED118A0FFF74AFC40F2102440F6CD4084
:1020D000C2F20004ADF8040001A9204602224FF02C
:1020E000FF3301F0B3FA40F20801C2F200012046CA
:1020F0000C224FF0FF3301F0A9FA02B0BDE8F087DF
:10210000AB208DF8070040F21020C2F200000DF164
:10211000070101224FF0FF3301F098FA02B0BDE849
:10212000F08700BF47657474696E6720424C206178
:102130007661696C61626C6520636F6D6D616E6460
:1021400073200D0A200000002DE9F04784B040F212
:10215000900AC2F2000A40F264109AF80010C0F22D
:10216000010001900AEB010050F8039C40F208289E
:10217000CE1E4FF00000C2F20008029012D040F2D2
:1021800008240021C2F2000402AD00271AF8010061
:10219000294602902046012200F078F90137F9B271
:1021A0008E42F3D8D8F8001048458A68044642F0B9
:1021B00001028A6044F6356144F65162C0F60001BE
:1021C000C0F6000208BF11460846FFF7C7FB4C45A2
:1021D0001CD117A0FFF7C2FB40F2102440F2CD4003
:1021E000C2F20004ADF80C0003A9204602224FF011
:1021F000FF3301F02BFA01A9204604224FF0FF33F0
:1022000001F024FA04B0BDE8F08700BFAB208DF8E0
:102210000F0040F21020C2F200000DF10F01012268
:102220004FF0FF3301F012FA04B0BDE8F08700BFB1
:1022300047657474696E6720424C207665727369D5
:102240006F6E200D0A2000002DE9F04788B03AA0FB
:10225000FFF784FB40F2900AC2F2000A9AF80000ED
:1022600040F208280AEB000151F8039CC61E4FF00B
:102270000000C2F20008019012D040F208240021B0
:10228000C2F2000401AD00271AF8010029460190AE
:102290002046012200F0FAF80137F9B28E42F3D855
:1022A000D8F8001048458A68044642F001028A6066
:1022B00044F6356144F65162C0F60001C0F60002F2
:1022C00008BF11460846FFF749FB4C451ED144F6AE
:1022D0002050C0F60000FFF741FB40F2102440F20E
:1022E000CD10C2F20004ADF8040001A9204602227C
:1022F0004FF0FF3301F0AAF901A800F0F3F90598B7
:1023000001A98DF8040020460EE000BF44F60550F8
:10231000C0F60000FFF722FBAB208DF8040040F26E
:102320001020C2F2000001A901224FF0FF3301F09A
:102330008DF908B0BDE8F087526561642074686566
:1023400020464C41534820526561642050726F749E
:10235000656374696F6E204F7574206C6576656C6B
:10236000200D0A00FEE7000070470000EFF3108028
:1023700072B600BFFEE70000F0B581B040F29827CA
:10238000044643F60C46C2F200070020C4F20206DF
:10239000F86100F0AFFB3168C9031DD43068C00795
:1023A0001CBF01203060306810F4F97F32D03068F3
:1023B000C00633D43068800639D4306840063FD434
:1023C0003068000645D43068C0054BD430688007BB
:1023D00052D4012001B0F0BDC4B10546601C10D13B
:1023E0003068C003DAD53068C00344BF30685FEAA4
:1023F000C030D3D53068C003F2D4CFE73068C00313
:10240000CCD500F077FB401BA042F7D9032001B0E8
:10241000F0BD00BF002001B0F0BD00BFF86940F082
:102420001000F8611020306030688006C5D5F8696A
:1024300040F00800F8612020306030684006BFD5C9
:10244000F86940F00400F861402030603068000610
:10245000B9D5F86940F00200F8618020306030683A
:10246000C005B3D5F86940F00100F8614FF4807001
:10247000306030688007ACD5F86940F02000F86122
:1024800002203060012001B0F0BD0000B0B58646EA
:1024900002208EF80500DEF8000042B302F0030CC3
:1024A00094084FF0000210D0A1F11003A2EB8404B5
:1024B00053F8105F043A05605D68944205609D68BA
:1024C0000560DD680560F3D15242BCF1000F0ED00B
:1024D00051F82230BCF1010F036008D001EB8201FA
:1024E0004A68BCF1020F02601CBF89680160006885
:1024F00001218EF80510B0BD002804BF01207047EF
:10250000417919B1012141710020704710B50021B6
:102510000171044600F008F82046BDE81040012192
:10252000417100207047000043F63001C4F20201FF
:102530000068A1F50362904218BF704781B0002087
:102540000090086840F480500860086800F48050EB
:102550000090009801B070472DE9F04381B040F23F
:102560009828C2F2000898F81820012A04D1022005
:1025700001B0BDE8F08300BF0546012088F81800CF
:102580004CF250308946FFF7F7FE28B1002188F859
:10259000181001B0BDE8F0834FF0FF30C9F800001B
:1025A000286843F610470128C4F202071CD12869A5
:1025B0003968000221F440713960396880B241F015
:1025C000040139603968084340F4803038604CF2C7
:1025D0005030FFF7D1FE396821F00401396057F817
:1025E000101C89053BD452E0D5E902603044864294
:1025F00030D2F000841C00BF28694FF44072C1B291
:10260000032939684FEA002021F4407139603968A4
:1026100038BF82B241EA02003860386820F0F80022
:102620003860386820433860386840F4803038605B
:102630004CF25030FFF7A0FE3968002821F0FA0173
:10264000396047D1D5E9020101360844864204F1D8
:102650000804D1D3002057F8101C890517D557F866
:10266000101C21F4007147F8101C57F8101C41F49D
:10267000006147F8101C57F8101C21F4006147F85E
:10268000101C57F8101C41F4007147F8101C57F843
:10269000101C49057FF57AAF57F8101C21F48061B2
:1026A00047F8101C57F8101C41F4805147F8101CD3
:1026B00057F8101C21F4805147F8101C57F8101CD3
:1026C00041F4806147F8101C002188F8181001B00F
:1026D000BDE8F083C9F8006057F8101C8905BED426
:1026E000D5E7000043F614410F22C4F20201026054
:1026F0004A8882604A78CC2A02D1CC2204E000BF0A
:102700004A78AA2A18BF552202610A6802F0E0023C
:102710000276097801F00C01416170472DE9F04122
:1027200040F29825C2F20005297E012904BF02204B
:10273000BDE8F081044601202876217843F614464E
:10274000C907C4F2020613D0D4E901784CF2503024
:10275000FFF712FE012F05D150B9708820EA08005A
:1027600004E000BF20B9708840EA080070800020B3
:102770002178890708D527694CF25030FFF7FCFD16
:10278000002804BF777000202178490705D5277EEF
:102790004CF25030FFF7F0FD80B12178090708D5E1
:1027A000207D317801F0F3013170317808433070C9
:1027B000002000212976BDE8F08100BF307807F0C5
:1027C000E00100F01F000844307000202178090764
:1027D000E6D4EEE743F61041C4F20201086840F087
:1027E000004200200A60704743F61441C4F202011F
:1027F000087840F002024CF250300A70FFF7BCBD7E
:1028000043F61441C4F20201086840F001020020BE
:102810000A60704743F60840C4F20200C168C90765
:1028200004BF0120704742F63B21C0F61901016048
:1028300046F67F61C4F65D410160002070470000EC
:102840002DE9F04140F29824C2F20004277E012FC6
:1028500004BF0220BDE8F0810546012020764CF23D
:10286000503098460F461646FFF786FD20B10021EE
:102870002176BDE8F08100BF2A46022D43F61045BF
:10288000C4F202051ED0012A314638460CD03ABBAC
:102890002A6822F440722A602A682A602A6842F074
:1028A00001022A6001702CE02A6822F440722A603A
:1028B0002A6842F480722A602A6842F001022A6083
:1028C00001801EE0286820F440702860286840F4E9
:1028D00000702860286840F0010028603E6010E029
:1028E0002A6822F440722A602A6842F440722A6000
:1028F0002A6842F001022A600160BFF36F8FC0F8BE
:1029000004804CF25030FFF737FD296821F00101B7
:10291000296000212176BDE8F081000043F60440E3
:10292000C4F20200C168B1F1FF3FC4BF002070478C
:1029300040F22311C4F26751016048F6AB11CCF6A6
:10294000EF510160C068C00F704700002DE9F04FE3
:1029500083B000F1200200F13E4741F200050092F1
:1029600007F1FF77C4F2020507224FEAB726A84213
:1029700008BF042200254FF000084FF00009042E84
:1029800038BF4FEAB72201920AE000BF09F10109FE
:1029900008F10208B9F1100F05F1040500F0A0805C
:1029A0000F68012202FA09FE17EA0E0AEED0D1F8EA
:1029B00004C003220CF003077E1E02FA08F4012E65
:1029C0006FEA040B12D88468CE6804EA0B0406FA96
:1029D00008F634438460446824EA0E06CCF30014FD
:1029E00004FA09F42643466004E000BF032F01D136
:1029F00003271EE0C6688C6806EA0B0604FA08F492
:102A00002643022FC66014D16FF00302009E02EA33
:102A1000590756F807C005F01C040F220B69A240A5
:102A20002CEA0202A3401A43F251D1F804C00CF080
:102A30000307026807FA08F302EA0B021A431CF4C0
:102A4000403F0260A2D0002243F644030292C4F247
:102A500002031A6843F6004442F480421A601A687E
:102A6000C4F2010402F480420292029A29F00302A5
:102A70004FF6084C2244CFF6FF7C52F80C3005F09C
:102A80000C070F26BE40B343019E06FA07F73B43EF
:102A900042F80C3022684B6842EA0A07DE0358BF4E
:102AA00022EA0A07276062689E0342EA0A0758BFC3
:102AB00022EA0A076760A268DE0242EA0A0743F6D2
:102AC0000C4658BF22EA0A07A760C4F20106326822
:102AD0009B0242EA0A0758BF22EA0A07376055E715
:102AE00003B0BDE8F08F0000002A08BF090481612F
:102AF0007047000040F2BC20C2F20000006870473E
:102B000040F2000040F2BC21C2F20000C2F200011B
:102B100000780A68104408607047000080B543F6EA
:102B20000040C4F20200016841F4007101600168D4
:102B300041F480610160016841F48071016003200B
:102B400000F074F80F2000F005F800F027F80020DE
:102B500080BD000070B540F20006C2F2000640F2EF
:102B600014013278C2F200014FF47A730968B3FBA2
:102B7000F2F20446B1FBF2F1084600F0E1FB0F2C43
:102B80004FF0010508D838B94FF0FF302146002238
:102B9000002500F01FF87460284670BD82B0002048
:102BA00043F640010190C4F202014A6842F48042B7
:102BB0004A604A6802F480420192019A00900868D3
:102BC00040F080500860086800F080500090009845
:102BD00002B0704710B54EF60C5CCEF2000CDCF87B
:102BE0000030C3F3022E8EF00704042C28BF042407
:102BF000BEF103034FF0FF3E0EFA04F438BF00238A
:102C0000A14399400EFA03F39A43114300F00F02D7
:102C100000F160430901043A03F56443624400286B
:102C200048BF02F10C03197010BD00004EF60C51A4
:102C3000CEF200010A684FF6FF031A4060F30A2241
:102C400042F0806040F0FD7008607047002804BFCB
:102C5000012070472DE9F04143F60808C4F202084C
:102C60000446D8F8F8030D4600F00700884207D262
:102C700088F8F853D8F8F80300F00700A84277D195
:102C80002068810717D5410705D5D8F8001041F411
:102C9000E051C8F80010010705D5D8F8001041F43C
:102CA0006041C8F80010D8F80010A26821F0F001C7
:102CB0001143C8F80010C00740D1D8F8F80300F05D
:102CC0000700A84207D988F8F853D8F8F80300F0AD
:102CD0000700A8424CD12068410707D5D8F800105A
:102CE000E26821F4E0511143C8F80010000708D54C
:102CF000D8F80000216920F4604040EAC100C8F81B
:102D0000000000F011F9D8F8001044F68C22C1F34D
:102D10000311C0F60002515C40F2140220FA01F1E6
:102D200040F20400C2F200000068C2F2000211602A
:102D3000FFF710FF0020BDE8F08100BF6068811E32
:102D4000022907D258F8081C89015CBF0120BDE8A0
:102D5000F08111E0012807D158F8081C89035CBFF5
:102D60000120BDE8F08107E058F8081C890703D46A
:102D70000120BDE8F08100BFD8F8001021F0030168
:102D80000843C8F80000FFF7B5FE064641F2883751
:102D9000D8F80000616800F00C00B0EB810F8CD017
:102DA000FFF7A8FE801BB842F2D90320BDE8F081EE
:102DB000F0B581B043F60006C4F20206FFF79AFEB2
:102DC0003168044641F00100306000BF3068800780
:102DD00006D4FFF78FFE001B0228F7D940E000BFA2
:102DE000306840F080003060FFF784FE0546002028
:102DF00041F28837B06000BFB468FFF77BFE14F083
:102E00000C0F044604D0601BB842F5D928E000BF7F
:102E1000306820F4502030603568FFF76BFEA9035E
:102E2000054603D5281B6428F6D919E0306820F040
:102E3000807030603468FFF75DFEA101044603D561
:102E4000601B0228F6D90BE0306820F0806030600B
:102E50003068000108D5FFF74DFE001B0228F7D9A6
:102E6000032001B0F0BD00BF43F21000C0F20040EB
:102E7000706043F20000C2F20000C6F88400F068FF
:102E800040F2140120F4F850F060F06842F2004281
:102E900020F40050F060F068C2F2000140F41F001E
:102EA000F060F068C0F2F40240F40010F060706F5F
:102EB00020F001007067706F40F08070706740F222
:102EC0000400C2F2000000680A60FFF743FE002819
:102ED00018BF012001B0F0BD40F2140043F6080114
:102EE000C2F20000C4F202010068096844F69C22A4
:102EF000C1F38221C0F60002515CC8407047000057
:102F000040F2140043F60801C2F20000C4F20201CC
:102F10000068096844F69C22C1F34231C0F6000201
:102F2000515CC8407047000010B543F60404C4F279
:102F30000204606800F00C0008280BD0042819BFB8
:102F400042F20040C0F2F40047F64000C0F27D10AB
:102F500010BD00BF206821682368490247F6400180
:102F6000C0F27D1100F03F02C3F388105CBF42F253
:102F70000041C0F2F401A1FB00010023FDF7E6F9D6
:102F800021680222C1F3014102EB4101B0FBF1F0E3
:102F900010BD0000002804BF012070472DE9F0415A
:102FA00082B00446007843F60006C007C4F2020669
:102FB0000CD0B06800F00C00042840F0818030682C
:102FC000800303D56068002800F0688120788007BE
:102FD0001BD5B06810F00C0F09D0B06800F00C00E1
:102FE000082840F087807068400200F183803068D4
:102FF000800703D5E068012840F0508130682169DE
:1030000020F0F80040EAC10030602078000713D4B7
:10301000207840072AD4A569002D00F03A81B068D5
:1030200000F00C00082840F0A580012D40F00E8132
:10303000012002B0BDE8F0816069002800F08280C4
:103040000020C4F247200121C0F8801EFFF752FD86
:10305000054600BF706F8007DAD4FFF74BFD401BB9
:103060000228F7D9032002B0BDE8F081306C5FEA96
:10307000C0080AD400200190306C40F080503064C9
:10308000306C00F080500190019847F20007C4F2C4
:1030900000073868C00547D4386840F4807038604D
:1030A000FFF728FD054600BF3868C0053CD4FFF790
:1030B00021FD401B0228F7D9032002B0BDE8F081B2
:1030C000B06800F00C00082803D1706840023FF59A
:1030D00076AF61683068B1F5803F07D0B1F5A02FB9
:1030E00040F09A8040F480203060306840F48030B6
:1030F00030609AE0E068002840F20000C4F2472007
:103100005CD001210160FFF7F5FC054630688007BF
:103110003FF574AFFFF7EEFC401B0228F6D9032001
:1031200002B0BDE8F08100BFA168306F012905D071
:10313000052955D140F004003067306F40F00100A0
:10314000306756E00020C4F247200021C0F8801EFE
:10315000FFF7D0FC054600BF706F80077FF558AFC2
:10316000FFF7C8FC401B0228F6D9032002B0BDE8D7
:10317000F08100BF0027C4F2472700203866FFF720
:10318000B9FC022D05460DD13068800140F18A80DE
:10319000FFF7B0FC401B02284FF00300F4D902B047
:1031A000BDE8F0813068800173D5FFF7A3FC401BB8
:1031B00002284FF00300F5D9F1E700BF00210160BC
:1031C000FFF798FC054600BF306880077FF51DAF0C
:1031D000FFF790FC401B02284FF00300F4D9DEE714
:1031E00020F001003067306F002920F004003067C4
:1031F0007AD0FFF77FFC054641F28837306F8007B1
:1032000000F18480FFF776FC401BB842F6D903201A
:1032100002B0BDE8F08100BF20F48030306030683B
:10322000002920F4802030607AD0FFF763FC054647
:10323000306880033FF5CAAEFFF75CFC401B642892
:10324000F6D9032002B0BDE8F08100BF7068E169E3
:1032500000F480028A4221D1216A00F03F028A42B2
:103260001CD147F6C071626A0140B1EB821F15D1D3
:10327000A16A4FF6FF73C903994300F44032A1F5E8
:1032800080318A420AD1E16A00F07060B0EB016FD0
:1032900004D1002002B0BDE8F08100BF012002B0DF
:1032A000BDE8F08104F11C052FCD084340EA8210EF
:1032B000D9034FF6FF729143A1F5803140EA0560D2
:1032C0000843706001203866FFF714FC044600BF15
:1032D00030688001DDD4FFF70DFC001B02284FF0A1
:1032E0000300F5D95BE700BFFFF704FC054641F298
:1032F000883700BF306F800708D5FFF7FBFB401B06
:10330000B8424FF00300F5D949E700BFB8F1000F0C
:103310003FF581AE306C20F0805030647BE600BF1A
:10332000FFF7E8FB054600BF306880037FF54EAE2F
:10333000FFF7E0FB401B64284FF00300F4D92EE7B1
:10334000411E0020B0EB116F1CBF012070474EF2F0
:103350001002CEF2000251604EF62351CEF200016F
:10336000F0230B700721906011607047002804BFA4
:103370000120704710B5044690F83D0028B90020A0
:1033800084F83C00204600F021F8242084F83D0019
:103390002068C16821F40051C160204600F0ECFDB6
:1033A0002068016921F490410161416921F02A01FD
:1033B0004161C16841F40051C160002020212064B6
:1033C00084F83D1084F83E1010BD000080B586B032
:1033D000006841F20042C4F2010200219042CDE9AE
:1033E0000411CDE90211019122D044F20041C4F24E
:1033F0000001884245D1002043F630010090C4F21C
:1034000002010A6942F400320A610A6902F40032D8
:103410000092009A0090086840F001000860086877
:103420000C2100F001000090009807201BE000BF75
:1034300043F630000091C4F20200426942F02002DB
:103440004261426902F020020092009A00910168F4
:1034500041F00101016000684FF4C05100F001002B
:10346000009000980820019102210291002103910F
:103470000321CDE904100020C4F2020001A9FFF7E6
:1034800065FA06B080BD00002DE9F04381B0044626
:1034900090F83E0020280DD10E4600294FF0010083
:1034A00018BF002A02D101B0BDE8F08394F83C00B7
:1034B000012803D1022001B0BDE8F083012084F887
:1034C0003C00002022211D46206484F83E10206329
:1034D0001746FFF70FFBA785E785A1680746B1F5FB
:1034E000805F03D12069002800F0AC80B046002640
:1034F000002084F83C00E08D002800F09B8005F15E
:1035000001090DE040684FF000086FF35F2026F8D6
:10351000020BE08D0138E085E08D002800F08A8004
:103520002068016889060DD4B9F1000F18D04DB399
:10353000FFF7E0FAC01BA84224D82068016889067A
:10354000F6D500BFB8F1000FDCD0A168B1F5805FFF
:1035500014D009B9216989B1406800F07F000EE0FC
:1035600001688906EED4016889065CBF01685FEADC
:103570008161E7D401688906F2D5E3E7406808F87D
:10358000010BC6E7206850E8030F216820F4D070D3
:1035900041E80302BAB3206850E8030F216820F421
:1035A000D07041E8030272B3206850E8030F21682D
:1035B00020F4D07041E803022AB3206850E8030FDA
:1035C000216820F4D07041E80302002ADAD11AE021
:1035D000206850E8050F216820F0010041E805024D
:1035E000DAB1206850E8050F216820F0010041E8B9
:1035F000050292B1206850E8050F216820F0010013
:1036000041E805024AB1206850E8050F216820F022
:10361000010041E80502002ADAD1202084F83D00AB
:1036200084F83E00002084F83C00032001B0BDE88F
:10363000F08300BF202084F83E00002001B0BDE8E8
:10364000F08300BF4FF0000852E700002DE9F0437F
:1036500081B0044690F83D0020280DD10F46002986
:103660004FF0010018BF002A02D101B0BDE8F0837D
:1036700094F83C00012803D1022001B0BDE8F0839A
:10368000012084F83C000020206421201D4684F89D
:103690003D001646FFF72EFAA684E684A16806468A
:1036A000B1F5805F03D12069002800F00D81B84694
:1036B0000027002084F83C00E18C2068002900F0FD
:1036C0008F8005F101090CE0B8F1000F28D018F83F
:1036D000011B4160E18C0139E184E18C002900F09B
:1036E0007F8001680906EFD4B9F1000F0AD0FDB15F
:1036F000FFF700FA801BA8421AD820680168090663
:10370000F6D5E1E701680906DED4016809065CBF69
:1037100001685FEA0161D7D401680906F2D5D3E7F1
:1037200037F8021B4FF000086FF35F21D1E700BFAD
:10373000206850E8030F216820F4D07041E80302AC
:10374000BAB3206850E8030F216820F4D07041E834
:10375000030272B3206850E8030F216820F4D07090
:1037600041E803022AB3206850E8030F216820F4DF
:10377000D07041E80302002ADAD11AE0206850E84C
:10378000050F216820F0010041E80502DAB1206848
:1037900050E8050F216820F0010041E8050292B1D0
:1037A000206850E8050F216820F0010041E805027B
:1037B0004AB1206850E8050F216820F0010041E877
:1037C0000502002ADAD1202084F83D0084F83E006A
:1037D000002084F83C00032001B0BDE8F08300BF66
:1037E000016849060FD4F5B1691C17D10168490673
:1037F00009D4016849065CBF01685FEA416102D4EF
:1038000001684906F2D5202084F83D00002001B06F
:10381000BDE8F083206800684006F4D4FFF76AF939
:10382000801BA842F6D9206850E8030F216820F4D5
:10383000D07041E80302E2B3206850E8030F21682A
:1038400020F4D07041E803029AB3206850E8030FD7
:10385000216820F4D07041E8030252B3206850E898
:10386000030F216820F4D07041E80302002ADAD166
:103870001FE000BF206850E8050F216820F001001C
:1038800041E80502002A9ED0206850E8050F216813
:1038900020F0010041E80502002A94D0206850E899
:1038A000050F216820F0010041E80502002A3FF4DD
:1038B0008AAF206850E8050F216820F0010041E838
:1038C0000502002AD6D17EE74FF00008F1E600009D
:1038D000FEE700002DE9F04F8DB04FF0000A009098
:1038E00000984FF01B0810F90A1000EB0A0408EAD0
:1038F000D1134A0083EA410052B2430094F9019087
:103900005BB208EAD21282EA400B08EAD31208EA54
:10391000D913079082EA4B004FEA490283EA490330
:1039200052B25F0094F902607FB208EAD2120690A8
:1039300082EA430008EAD71208EAD617089082EA1A
:103940004000720087EA460552B26F00049078B2D8
:1039500008EAD212059182EA450108EAD01294F9E8
:10396000030082EA410C420054B208EAD01282EA13
:10397000400E4FEA4E077FB208EAD41484EA4E04A0
:1039800008EAD71787EA440886EA0907079A4740F2
:1039900057405F4087EA0B07069A03914F4004990E
:1039A00057404F40CDF804C087EA0C07DDF814C03B
:1039B000CDF808B087EA08070DF1240B0BF80A7060
:1039C00086EA0C0747407B40089F6B407B40634082
:1039D00017465340019A4B40534083EA0803D344AF
:1039E0008BF8013089EA0C0358406840029D80EA58
:1039F0000E006840039D0AF1040A68407840484080
:103A0000504080EA08008BF8020083EA0600079B1A
:103A1000BAF1100F80EA0300089B80EA0E0080EAEA
:103A2000030080EA040080EA070080EA010080EADF
:103A3000020080EA08008BF803007FF451AF09AB65
:103A40000C9A0BCB009FFA60BB60796038600DB0B8
:103A5000BDE8F08FF0B501684268836840F2581CF9
:103A600009BAC2F2000CC06812BA1BBA8CE80E0088
:103A700044F6A431C0F6000144F6AE3E00BA013966
:103A80006FF00F02C0F6000ECCF80C004FEA306366
:103A9000C3F307451C0E1EF805501EF80440C3F37F
:103AA00007232D041EF803305FFAB0F045EA0464E2
:103AB0001EF8000044EA032311F8014F18440CEBF0
:103AC000020303F1100780EA0460F0CF1032444093
:103AD00065406E4087EA060003F12007902A70C710
:103AE000D862D3D1F0BD000080B540F2082043F287
:103AF0000001C2F20000C4F202010160FEF7FCFC0A
:103B0000002808BF80BDBDE88040FEF72FBC000044
:103B100070B586B0002543F630000595CDE9035514
:103B2000CDE901550095C4F20200016840F6000499
:103B300041F0040101600168C4F2020401F00401D3
:103B40000091009900950168002241F00101016097
:103B500000684FF4005100F00100009000982046EA
:103B60004FF40056FEF7C0FF0120CDE9020501A980
:103B7000204601960495FEF7E9FE06B070BD0000F0
:103B800080B540F2102044F20041C2F20000C4F2BD
:103B9000000100234FF00C0C4FF4E13280E80E00DE
:103BA000C0E90333C0E905C3C361FFF7DFFB0028A9
:103BB00008BF80BDBDE88040FEF7D8BB80B540F2AD
:103BC000542041F20041C2F20000C4F2010100237E
:103BD0004FF00C0C4FF4E13280E80E00C0E90333E3
:103BE000C0E905C3C361FFF7C1FB002808BF80BD62
:103BF000BDE88040FEF7BABBFEE70000FEE700002C
:103C00007047000040F25810C2F2000090E80E1019
:103C100009BA016011BA416019BA026981609CFA5F
:103C20008CF1C16011BA4269016111BA82694161C6
:103C300011BAC269816111BA026AC16111BA426ADC
:103C4000016211BA826A416211BAC26A816211BA12
:103C5000026BC16211BA426B016311BA826B41639C
:103C600011BAC26B816311BA026CC16311BA426CA2
:103C7000016411BA826C416411BAC26C816411BAD8
:103C8000026DC16411BA426D016511BA826D416560
:103C900011BAC26D816511BA026EC16511BA426E68
:103CA000016611BA826E416611BAC26E816611BA9E
:103CB000026FC16611BA426F016711BA826F416724
:103CC00011BAC26F816711BAD0F88020C16711BAEA
:103CD000D0F88420C0F8801011BAD0F88820C0F83D
:103CE000841011BAD0F88C20C0F8881011BAD0F81E
:103CF0009020C0F88C1011BAD0F89420C0F8901021
:103D000011BAD0F89820C0F8941011BAD0F89C20BD
:103D1000C0F8981011BAD0F8A020C0F89C1011BAC1
:103D2000D0F8A420C0F8A01011BAD0F8A820C0F88C
:103D3000A41011BAD0F8AC20C0F8A81011BAC0F87D
:103D4000AC10704770470000FEF7DABE4EF68850A0
:103D5000CEF20000016841F4700101604FF0006193
:103D600040F8801C704700002DE9F04798B0002013
:103D70008DF8470001A84021FCF772FB40F2900A41
:103D8000C2F2000A9AF80700012817D144F64E50F3
:103D90000024C0F600001294FDF7E0FD052102208A
:103DA000169101211590139414911790FEF7B6FD0A
:103DB00013A812A9FEF7D0FBFEF70CFD9AF800003D
:103DC00040F208280AEB000151F8039CC71E4FF08F
:103DD0000000C2F20008139012D040F20824002123
:103DE000C2F2000413AD00261AF801002946139010
:103DF00020460122FEF74AFB0136F1B28F42F3D88A
:103E0000D8F8001048458A68044642F001028A60EA
:103E100044F6356144F65162C0F60001C0F6000276
:103E200008BF11460846FDF799FD4C4550D130A01A
:103E3000FDF794FD40F2CD10ADF84C0040F210209B
:103E4000C2F2000013A902224FF0FF33FFF7FEFB7E
:103E5000DAF802409AF806502EA02146FDF77EFDC2
:103E60006FF0006021186FF00050221838A0B2F5F2
:103E7000803F2EA338BF1846B1F5801F214638BFBA
:103E80001846FDF76BFD01AE0AF1080029463246DF
:103E9000FDF72AFDFEF742FD5DB1013E16F8012F48
:103EA000002021460023FEF7CBFC013D04F1010474
:103EB000F4D1FEF78FFC44F63B50C0F60000FDF74E
:103EC0004DFD40F21020C2F200000DF1470107E065
:103ED000AB208DF84C0040F21020C2F2000013A974
:103EE00001224FF0FF33FFF7B1FB18B0BDE8F087B8
:103EF00057726974696E67206461746120746F2001
:103F00006D656D6F72792041646472657373200D05
:103F10000A200000484F53545F4164647265737314
:103F2000203D2030782558200D0A00004A756D701C
:103F3000696E672041646472657373203078255818
:103F40002069732076616C69640D0A20000000000E
:103F50004A756D70696E6720416464726573732081
:103F600030782558206973204E4F542056414C49D3
:103F7000440D0A2000000000B0B50446006804F1BA
:103F800008030ECB0569194325F440552A43026105
:103F90006269E3691143C268194349F20C639A43A9
:103FA0001143C1604169A26921F4407141F20043AB
:103FB000114340F48062C4F201039A42416103D18B
:103FC000FEF79EFF02E000BFFEF786FFE1694FF6B5
:103FD0009C7563681922C0F6FF75B1F5004FA0FB10
:103FE00002011FD15A00DB0FFCF7B0F948F21F5154
:103FF000C5F2EB11A0FB01235A0905F1805302FB26
:104000000300322303EBC000A0FB01014FF4F87062
:1040100000EA111000EB0210C1F3421108442168BC
:104020008860B0BD9A009B0FFCF790F948F21F51D1
:10403000C5F2EB11A0FB01235A0902FB0500322354
:1040400003EB0010A0FB0101F02000EA511000EB8F
:104050000210C1F34311084421688860B0BD00001C
:10406000FEE7000092B047F20005C4F20005FEF73B
:1040700055FD06AC20463021FCF7F2F9002643F648
:1040800040000596CDE90366CDE901660096C4F2CD
:104090000200016841F0805101600068022100F0D7
:1040A0008050009000980096286861F38F30286057
:1040B000286800F4404000900098012009901020EA
:1040C0000A90204606910C96FEF764FF20B1EFF3AC
:1040D000108072B6FEE700BF0F20CDE9010601A8EF
:1040E0000021CDE903660596FEF7B0FD20B1EFF3A0
:1040F000108072B6FEE700BFFFF70AFDFFF7F4FC81
:10410000FFF73EFDFFF75AFD08A0FDF727FC05F578
:10411000CC304FF400510122FEF7E6FC40F2B82407
:10412000C2F20004FDF73CFC2070FBE7426F6F74A5
:104130006C6F6164657220737461727465640D0ADA
:10414000000000005FEA400C08BF91F0000F4FEA4A
:104150008C234FEAC12243EA51514FEA1C5018BF49
:1041600000F5F0404FEA300018BF41F000415FEA2F
:104170006C5C00F02980BCF1FF3F08BF40F080403C
:104180007047130C06BF12044FF0100C4FF0000CD8
:10419000130E04BF12020CF1080C130F04BF12011E
:1041A0000CF1040C930F04BF92000CF1020CD30F1E
:1041B00004BF52000CF1010C11464FF00002A0F1B7
:1041C0001F00A0EB0C00704711F0004F08BF7047B4
:1041D00031F000413FF4D5AF0B0C06BF09044FF09E
:1041E000100C4FF0000C0B0E04BF09020CF1080C70
:1041F0000B0F04BF09010CF1040C8B0F04BF8900E5
:104200000CF1020CCB0F04BF49000CF1010CCCF1F6
:10421000200322FA03F341EA030102FA0CF2A0EBB5
:104220000C0000F10100704723F07F4720F07F4C25
:1042300080EA030000F00040ACEB070303F57C5379
:1042400003F1FF032DE9804909B44FEA144324EA3E
:1042500003484FEA154B25EA0B4E0FF2042606EBF6
:1042600013273E7803FB0667C7F5000707FB06F632
:104270004FEAD64606F102064FEA543707FB066CB2
:10428000CCF1005C4FEA1C472CEA074C0CFB06F50E
:1042900007FB06F404EB15464FEA961649085FEA59
:1042A000320234BF00204FF000404FEAD13706FB06
:1042B00007FC4FEA1C4C0CFB0BF7D21B03FB0CF763
:1042C00061EB07010CFB0EF7B0EB074072EB1742F6
:1042D0000CFB08F734BFA2EB0742B2EB074261EBDD
:1042E00017414FEA0C444FEA910706FB07FC4FEADF
:1042F0001C4C0CFB0BF7B0EBC74072EB573203FBC7
:104300000CF734BFA2EBC742B2EBC74261EB5731A7
:104310000CFB0EF7B0EBC70072EB57720CFB08F703
:1043200034BFA2EBC702B2EBC70261EB57714FEA91
:10433000816141EA92114FEA826242EA90124FEAA9
:10434000806004EBCC04039F4FEAD13706FB07FCE7
:104350004FEA1C4C0CFB0BF7D21B03FB0CF761EB79
:1043600007010CFB0EF7B0EB074072EB17420CFB9A
:1043700008F734BFA2EB0742B2EB074261EB1741EB
:104380004FEA8C5504EB9C244FEA910706FB07FC8F
:104390004FEA1C4C0CFB0BF7B0EBC74072EB5732EB
:1043A00003FB0CF734BFA2EBC742B2EBC74261EB91
:1043B00057310CFB0EF7B0EBC70072EB57720CFBDA
:1043C00008F734BFA2EBC702B2EBC70261EB57712B
:1043D0004FEA816141EA92114FEA826242EA901209
:1043E0004FEA806015EB4C2544F100044FEAD137C9
:1043F00006FB07FC4FEA1C4C0CFB0BF7D21B03FB24
:104400000CF761EB07010CFB0EF7B0EB074072EB0A
:1044100017420CFB08F734BFA2EB0742B2EB07428E
:1044200061EB17414FEA813141EA92414FEA823212
:1044300042EA90424FEA80304FEA0C7615EB1C15A9
:1044400044F1000448EA03434EEA0B484FF0000EE3
:10445000B2EB080C71EB030724BF624639464EEB02
:104460000E0E4FF0000B0018524149414BEB0B0B65
:10447000B2EB080C71EB03077BF1000B24BF624623
:1044800039464EEB0E0E4FF0000B001852414941D9
:104490004BEB0B0BB2EB080C71EB03077BF1000B42
:1044A00024BF624639464EEB0E0E51EA020718BF92
:1044B00046F0010616EB0E7655F1000254F10001AC
:1044C00003D5BDE88901BDE80088BDE88901BDE8E4
:1044D0000048B619524141EB0101A3F101037047B5
:1044E00080807F7E7D7C7B7A797877767675747331
:1044F000727171706F6E6E6D6C6C6B6A6A696868F0
:10450000676666656464636362616160605F5F5E85
:104510005E5D5D5C5C5B5B5A5A59595858575756FB
:104520005655555554545353525252515150505060
:104530004F4F4F4E4E4D4D4D4C4C4C4B4B4B4A4AB2
:104540004A494949484848474747474646464545F6
:10455000454444444443434343424242424141412F
:104560009C46002B30D477002BD04FEA37071CB580
:1045700003B44FF010004FF01001BAF1000F06D055
:10458000BCF1000FDCBF40F0080040F008014FF024
:1045900000000FBCBDE810400BF1010BBBF1010F97
:1045A00008BF5FEA170722BF12F1010211F10101F2
:1045B0004FF0004143F1000300F0004043EA0000E7
:1045C0007047F9D35708D0E746EA06464FEA164641
:1045D00013F1400F1FDD13F1200FDFBF16430A4612
:1045E000002120335B42BED0C3F1200746EA0646D5
:1045F0004FEA164602FA07F746EA070622FA03F2DE
:10460000C3F1200701FA07F742EA070221FA03F192
:104610004FF00003A7E746EA020646EA06464FEADD
:10462000164646EA0106BCBF46EA0646360C4FF07F
:1046300000034FF000024FF0000194E72DE9804C99
:1046400070B49A46934691E8380007C831EA400CA6
:1046500048BF34EA430C03D5FFF7E6FDFFF780FFC0
:10466000F0BCBDE8008C2DE9804C70B49A469346AE
:1046700091E8380007C810F0804F08BF13F0804F52
:1046800003D100F005F8FFF76BFFF0BCBDE8008C2C
:1046900020F07F4723F07F4C80EA030000F00040C9
:1046A00007EB0C03A3F57C53A3F1FE0392F0000F7C
:1046B00000F0B38095F0000F00F077802DE90149FC
:1046C0004FEA114021EA00484FEA144624EA06471F
:1046D00000FB06FC08FB06F607FB08F818EB06488B
:1046E0004CEB164C00FB07F718EB07484CEB174058
:1046F0004FEA124B22EA0B4E4FEA154625EA0647CF
:104700000BFB06FC0EFB06F607FB0EFE1EEB064E31
:104710004CEB164C0BFB07F71EEB074E4CEB174B05
:1047200018EB0B0840F1000018EB0E0B58EB0008DB
:1047300040F100008F1A4FF000014FF000063CBF1F
:10474000C943661B14BFB5EB040C00213CBFC94331
:10475000F61B4FEA174427EA04454FEA1C472CEAA8
:10476000074C04FB076205FB07F70CFB05F616EB8D
:10477000074642EB174204FB0CFC16EB0C4642EBDF
:104780001C421BEB060658EB020241414EEA8E0E1C
:1047900046EA9E0601D5BDE80189B619524141EBB2
:1047A0000101A3F10103BDE801894FEA144524EAA0
:1047B00005464FEA114721EA074C05FB07F406FBC3
:1047C00007F70CFB06F111EB074144EB174405FB1F
:1047D0000CFC11EB0C4144EB1C444FEA124722EA5B
:1047E000074C05FB07F206FB07F70CFB06F616EB7A
:1047F000074642EB174205FB0CFC16EB0C4642EB5E
:104800001C456A1854F1000148BF7047B61952415F
:1048100041EB0101A3F10103704795F0000F37D080
:104820004FEA114221EA02464FEA144724EA074CB4
:1048300002FB07F106FB07F70CFB06F414EB074439
:1048400041EB174102FB0CFC14EB0C4441EB1C4107
:104850004FEA154725EA074C02FB07F506FB07F769
:104860000CFB06F616EB074645EB174502FB0CFC66
:1048700016EB0C4645EB1C42121951F1000148BFE2
:104880007047B619524141EB0101A3F10103704792
:104890004FEA144524EA05464FEA114721EA074C3E
:1048A00005FB07F106FB07F70CFB06F212EB0742CC
:1048B00041EB174105FB0CFC12EB0C4251EB1C4188
:1048C0004FF0000648BF7047921841EB0101A3F179
:1048D0000103704703B401984100009850EAC120D9
:1048E00018BF04204A0D18BF40F0010040F2FF72CB
:1048F000B2EB515F08BF40F00200012808BF05205D
:1049000002B0704730380A2801D2012070470020D9
:104910007047000010B500290AD00878002807D099
:1049200005487844FCF7ECFD002801D0002010BDBC
:104930000248784410BD00006E05000066050000C6
:1049400010B500290AD00878002807D00548784417
:10495000FCF7D6FD002801D0002010BD02487844A5
:1049600010BD00005E05000056050000F1EE100AC3
:104970004FF6FF71C0F2C03120EA010040F04070F4
:10498000E1EE100A7047FCF7C2B9FCF7F7BA000075
:10499000000000000000000030313233343536377B
:1049A0003839414243444546403058003031323373
:1049B0003435363738396162636465664030780073
:1049C00004000008000000000000000200010000D8
:1049D00010303132333435363738396162636465CB
:1049E00066787000303132333435363738394142E9
:1049F000434445465850000002400000000000A01B
:104A00000000000005400000000000C80000000099
:104A10000C4000000000409C000000001940000015
:104A20000020BCBE0000000034400000BFC91B8E47
:104A300000000004B5400000504BCFD06607E2CF25
:104A4000010000006C4100003E8251AADFEEA73455
:104A500001000000D9420000DCB5A0E23A301F9707
:104A6000FFFFFFFFB4450000FD25A0C8E9A3C14F2B
:104A7000FFFFFFFFFF3F000000000080000000007C
:104A8000FF3F000000000080000000000000000068
:104A900000000000010203040607080900000000EE
:104AA0000102030452096AD53036A538BF40A39EDF
:104AB00081F3D7FB7CE339829B2FFF87348E4344FD
:104AC000C4DEE9CB547B9432A6C2233DEE4C950B59
:104AD00042FAC34E082EA16628D924B2765BA249B9
:104AE0006D8BD12572F8F66486689816D4A45CCCD8
:104AF0005D65B6926C704850FDEDB9DA5E154657AB
:104B0000A78D9D8490D8AB008CBCD30AF7E45805E0
:104B1000B8B34506D02C1E8FCA3F0F02C1AFBD03EC
:104B200001138A6B3A9111414F67DCEA97F2CFCEBD
:104B3000F0B4E67396AC7422E7AD3585E2F937E858
:104B40001C75DF6E47F11A711D29C5896FB7620E9A
:104B5000AA18BE1BFC563E4BC6D279209ADBC0FE7B
:104B600078CD5AF41FDDA8338807C731B112105928
:104B70002780EC5F60517FA919B54A0D2DE57A9F1A
:104B800093C99CEFA0E03B4DAE2AF5B0C8EBBB3C0F
:104B900083539961172B047EBA77D626E169146393
:104BA00055210C7D01020408102040801B36637CD7
:104BB000777BF26B6FC53001672BFED7AB76CA826D
:104BC000C97DFA5947F0ADD4A2AF9CA472C0B7FD1D
:104BD0009326363FF7CC34A5E5F171D8311504C7DB
:104BE00023C31896059A071280E2EB27B275098352
:104BF0002C1A1B6E5AA0523BD6B329E32F8453D1F3
:104C000000ED20FCB15B6ACBBE394A4C58CFD0EFE7
:104C1000AAFB434D338545F9027F503C9FA851A321
:104C2000408F929D38F5BCB6DA2110FFF3D2CD0C3F
:104C300013EC5F974417C4A77E3D645D19736081D0
:104C40004FDC222A908846EEB814DE5E0BDBE032A1
:104C50003A0A4906245CC2D3AC629195E479E7C86C
:104C6000376D8DD54EA96C56F4EA657AAE08BA78E0
:104C7000252E1CA6B4C6E8DD741F4BBD8B8A703E82
:104C8000B5664803F60E613557B986C11D9EE1F839
:104C9000981169D98E949B1E87E9CE5528DF8CA187
:104CA000890DBFE6426841992D0FB054BB16496E7D
:104CB00076616C696420636F6D6D616E6420636FF3
:104CC00064652072656365697665642066726F6DE0
:104CD00020686F7374202121200D0A0050617373C6
:104CE0006564202D3E2050726F6772616D20524FB7
:104CF0005020746F204C6576656C203A2030782502
:104D000058200D0A00435243205665726966696354
:104D10006174696F6E204661696C6564200D0A00DC
:104D200043524320566572696669636174696F6EA8
:104D300020506173736564200D0A005061796C6FB7
:104D4000616420496E56616C6964200D0A005573D8
:104D50006572206E6565647320536563746F72209D
:104D60006572617365200D0A00456E61626C652095
:104D70006F722044697361626C6520777269746533
:104D80002070726F74656374206F6E20646966664C
:104D90006572656E7420736563746F7273206F66DD
:104DA00020746865207573657220666C6173682075
:104DB0000D0A004661696C6564202D3E2050726FBB
:104DC0006772616D206F7074696F6E2062797465AF
:104DD00073200D0A00506173736564202D3E2050CE
:104DE000726F6772616D206F7074696F6E20627987
:104DF000746573200D0A00506173736564202D3E45
:104E000020556E6C6F636B2074686520464C41536F
:104E100048204F7074696F6E20436F6E74726F6CB0
:104E2000205265676973746572732061636365738B
:104E300073200D0A00435243205665726966696308
:104E40006174696F6E20204661696C65640D0A208B
:104E50000043524320566572696669636174696FE5
:104E60006E20205061737365640D0A2000000000FD
:104E7000C04F00080000002030000000F8010008CA
:104E8000F04F0008300000209008000018020008D1
:104E90001C00000043000000F8FFFFFF0C000000B2
:104EA0000E0000000F0000002E00000010010000A6
:104EB00043000000F8FFFFFF0040404040404040FA
:104EC00040404141414141404040404040404040DD
:104ED0004040404040404040400502020202020281
:104EE00002020202020202020220202020202020D0
:104EF00020202002020202020202909090909090E4
:104F000010101010101010101010101010101010A1
:104F10001010101002020202020288888888888815
:104F20000808080808080808080808080808080801
:104F30000808080802020202400000000000000009
:104F40000000000000000000000000000000000061
:104F50000000000000000000000000000000000051
:104F60000000000000000000000000000000000041
:104F70000000000000000000000000000000000031
:104F80000000000000000000000000000000000021
:104F90000000000000000000000000000000000011
:104FA0000000000000000000000000000000000001
:104FB00000000000000000000000000000000000F1
:104FC0000100000010000000101112131415161734
:104FD000181920210024F4003031323334353637AB
:104FE00038396162636465660100000000000000FA
:040000050800019559
:00000001FF
